{
  "contracts/ElectionFactory.sol": {
    "ElectionFactory": {
      "abi": [
        {
          "inputs": [],
          "stateMutability": "nonpayable",
          "type": "constructor"
        },
        {
          "anonymous": false,
          "inputs": [
            {
              "indexed": false,
              "internalType": "address",
              "name": "electionAddress",
              "type": "address"
            }
          ],
          "name": "ElectionCreated",
          "type": "event"
        },
        {
          "inputs": [
            {
              "internalType": "string",
              "name": "_title",
              "type": "string"
            },
            {
              "internalType": "string",
              "name": "_description",
              "type": "string"
            },
            {
              "internalType": "bool",
              "name": "_isPublic",
              "type": "bool"
            },
            {
              "internalType": "uint256",
              "name": "_startDate",
              "type": "uint256"
            },
            {
              "internalType": "uint256",
              "name": "_endDate",
              "type": "uint256"
            }
          ],
          "name": "createElection",
          "outputs": [],
          "stateMutability": "nonpayable",
          "type": "function"
        },
        {
          "inputs": [
            {
              "internalType": "uint256",
              "name": "_electionID",
              "type": "uint256"
            }
          ],
          "name": "deleteElection",
          "outputs": [],
          "stateMutability": "nonpayable",
          "type": "function"
        },
        {
          "inputs": [],
          "name": "getElections",
          "outputs": [
            {
              "internalType": "address[]",
              "name": "",
              "type": "address[]"
            }
          ],
          "stateMutability": "view",
          "type": "function"
        },
        {
          "inputs": [],
          "name": "getOwner",
          "outputs": [
            {
              "internalType": "address",
              "name": "",
              "type": "address"
            }
          ],
          "stateMutability": "view",
          "type": "function"
        },
        {
          "inputs": [],
          "name": "getTotalElections",
          "outputs": [
            {
              "internalType": "uint256",
              "name": "",
              "type": "uint256"
            }
          ],
          "stateMutability": "view",
          "type": "function"
        }
      ],
      "evm": {
        "bytecode": {
          "linkReferences": {},
          "object": "608060405234801561001057600080fd5b50336000806101000a81548173ffffffffffffffffffffffffffffffffffffffff021916908373ffffffffffffffffffffffffffffffffffffffff16021790555061276c806100606000396000f3fe60806040523480156200001157600080fd5b50600436106200005e5760003560e01c8063721f1c6d1462000063578063740c47d41462000083578063893d20e814620000a35780639f3a7f5214620000c5578063a9392e0c14620000e7575b600080fd5b6200008160048036038101906200007b91906200058c565b62000109565b005b620000a160048036038101906200009b919062000652565b620001f2565b005b620000ad620002ca565b604051620000bc9190620006c9565b60405180910390f35b620000cf620002f3565b604051620000de9190620007b4565b60405180910390f35b620000f162000383565b604051620001009190620007e9565b60405180910390f35b600085858585856040516200011e9062000390565b6200012e959493929190620008a0565b604051809103906000f0801580156200014b573d6000803e3d6000fd5b5090506001819080600181540180825580915050600190039060005260206000200160009091909190916101000a81548173ffffffffffffffffffffffffffffffffffffffff021916908373ffffffffffffffffffffffffffffffffffffffff1602179055507f3bf25a9dfa34d3f99eec4217177ec490f7a345ee390de1e739e9c816a37122f081604051620001e29190620006c9565b60405180910390a1505050505050565b60008054906101000a900473ffffffffffffffffffffffffffffffffffffffff1673ffffffffffffffffffffffffffffffffffffffff163373ffffffffffffffffffffffffffffffffffffffff161462000283576040517f08c379a00000000000000000000000000000000000000000000000000000000081526004016200027a906200095b565b60405180910390fd5b600181815481106200029a57620002996200097d565b5b9060005260206000200160006101000a81549073ffffffffffffffffffffffffffffffffffffffff021916905550565b60008060009054906101000a900473ffffffffffffffffffffffffffffffffffffffff16905090565b606060018054806020026020016040519081016040528092919081815260200182805480156200037957602002820191906000526020600020905b8160009054906101000a900473ffffffffffffffffffffffffffffffffffffffff1673ffffffffffffffffffffffffffffffffffffffff16815260200190600101908083116200032e575b5050505050905090565b6000600180549050905090565b611d8a80620009ad83390190565b6000604051905090565b600080fd5b600080fd5b600080fd5b600080fd5b6000601f19601f8301169050919050565b7f4e487b7100000000000000000000000000000000000000000000000000000000600052604160045260246000fd5b6200040782620003bc565b810181811067ffffffffffffffff82111715620004295762000428620003cd565b5b80604052505050565b60006200043e6200039e565b90506200044c8282620003fc565b919050565b600067ffffffffffffffff8211156200046f576200046e620003cd565b5b6200047a82620003bc565b9050602081019050919050565b82818337600083830152505050565b6000620004ad620004a78462000451565b62000432565b905082815260208101848484011115620004cc57620004cb620003b7565b5b620004d984828562000487565b509392505050565b600082601f830112620004f957620004f8620003b2565b5b81356200050b84826020860162000496565b91505092915050565b60008115159050919050565b6200052b8162000514565b81146200053757600080fd5b50565b6000813590506200054b8162000520565b92915050565b6000819050919050565b620005668162000551565b81146200057257600080fd5b50565b60008135905062000586816200055b565b92915050565b600080600080600060a08688031215620005ab57620005aa620003a8565b5b600086013567ffffffffffffffff811115620005cc57620005cb620003ad565b5b620005da88828901620004e1565b955050602086013567ffffffffffffffff811115620005fe57620005fd620003ad565b5b6200060c88828901620004e1565b94505060406200061f888289016200053a565b9350506060620006328882890162000575565b9250506080620006458882890162000575565b9150509295509295909350565b6000602082840312156200066b576200066a620003a8565b5b60006200067b8482850162000575565b91505092915050565b600073ffffffffffffffffffffffffffffffffffffffff82169050919050565b6000620006b18262000684565b9050919050565b620006c381620006a4565b82525050565b6000602082019050620006e06000830184620006b8565b92915050565b600081519050919050565b600082825260208201905092915050565b6000819050602082019050919050565b6200071d81620006a4565b82525050565b600062000731838362000712565b60208301905092915050565b6000602082019050919050565b60006200075782620006e6565b620007638185620006f1565b9350620007708362000702565b8060005b83811015620007a75781516200078b888262000723565b975062000798836200073d565b92505060018101905062000774565b5085935050505092915050565b60006020820190508181036000830152620007d081846200074a565b905092915050565b620007e38162000551565b82525050565b6000602082019050620008006000830184620007d8565b92915050565b600081519050919050565b600082825260208201905092915050565b60005b838110156200084257808201518184015260208101905062000825565b60008484015250505050565b60006200085b8262000806565b62000867818562000811565b93506200087981856020860162000822565b6200088481620003bc565b840191505092915050565b6200089a8162000514565b82525050565b600060a0820190508181036000830152620008bc81886200084e565b90508181036020830152620008d281876200084e565b9050620008e360408301866200088f565b620008f26060830185620007d8565b620009016080830184620007d8565b9695505050505050565b7f596f7520617265206e6f7420746865206f776e65720000000000000000000000600082015250565b60006200094360158362000811565b915062000950826200090b565b602082019050919050565b60006020820190508181036000830152620009768162000934565b9050919050565b7f4e487b7100000000000000000000000000000000000000000000000000000000600052603260045260246000fdfe60806040523480156200001157600080fd5b5060405162001d8a38038062001d8a8339818101604052810190620000379190620002de565b8082106200007c576040517f08c379a000000000000000000000000000000000000000000000000000000000815260040162000073906200042b565b60405180910390fd5b84600090816200008d91906200068e565b5083600190816200009f91906200068e565b5082600260006101000a81548160ff0219169083151502179055508160038190555080600481905550505050505062000775565b6000604051905090565b600080fd5b600080fd5b600080fd5b600080fd5b6000601f19601f8301169050919050565b7f4e487b7100000000000000000000000000000000000000000000000000000000600052604160045260246000fd5b6200013c82620000f1565b810181811067ffffffffffffffff821117156200015e576200015d62000102565b5b80604052505050565b600062000173620000d3565b905062000181828262000131565b919050565b600067ffffffffffffffff821115620001a457620001a362000102565b5b620001af82620000f1565b9050602081019050919050565b60005b83811015620001dc578082015181840152602081019050620001bf565b60008484015250505050565b6000620001ff620001f98462000186565b62000167565b9050828152602081018484840111156200021e576200021d620000ec565b5b6200022b848285620001bc565b509392505050565b600082601f8301126200024b576200024a620000e7565b5b81516200025d848260208601620001e8565b91505092915050565b60008115159050919050565b6200027d8162000266565b81146200028957600080fd5b50565b6000815190506200029d8162000272565b92915050565b6000819050919050565b620002b881620002a3565b8114620002c457600080fd5b50565b600081519050620002d881620002ad565b92915050565b600080600080600060a08688031215620002fd57620002fc620000dd565b5b600086015167ffffffffffffffff8111156200031e576200031d620000e2565b5b6200032c8882890162000233565b955050602086015167ffffffffffffffff81111562000350576200034f620000e2565b5b6200035e8882890162000233565b945050604062000371888289016200028c565b93505060606200038488828901620002c7565b92505060806200039788828901620002c7565b9150509295509295909350565b600082825260208201905092915050565b7f53746172742064617465206d757374206265206265666f726520656e6420646160008201527f7465000000000000000000000000000000000000000000000000000000000000602082015250565b600062000413602283620003a4565b91506200042082620003b5565b604082019050919050565b60006020820190508181036000830152620004468162000404565b9050919050565b600081519050919050565b7f4e487b7100000000000000000000000000000000000000000000000000000000600052602260045260246000fd5b60006002820490506001821680620004a057607f821691505b602082108103620004b657620004b562000458565b5b50919050565b60008190508160005260206000209050919050565b60006020601f8301049050919050565b600082821b905092915050565b600060088302620005207fffffffffffffffffffffffffffffffffffffffffffffffffffffffffffffffff82620004e1565b6200052c8683620004e1565b95508019841693508086168417925050509392505050565b6000819050919050565b60006200056f620005696200056384620002a3565b62000544565b620002a3565b9050919050565b6000819050919050565b6200058b836200054e565b620005a36200059a8262000576565b848454620004ee565b825550505050565b600090565b620005ba620005ab565b620005c781848462000580565b505050565b5b81811015620005ef57620005e3600082620005b0565b600181019050620005cd565b5050565b601f8211156200063e576200060881620004bc565b6200061384620004d1565b8101602085101562000623578190505b6200063b6200063285620004d1565b830182620005cc565b50505b505050565b600082821c905092915050565b6000620006636000198460080262000643565b1980831691505092915050565b60006200067e838362000650565b9150826002028217905092915050565b62000699826200044d565b67ffffffffffffffff811115620006b557620006b462000102565b5b620006c1825462000487565b620006ce828285620005f3565b600060209050601f831160018114620007065760008415620006f1578287015190505b620006fd858262000670565b8655506200076d565b601f1984166200071686620004bc565b60005b82811015620007405784890151825560018201915060208501945060208101905062000719565b868310156200076057848901516200075c601f89168262000650565b8355505b6001600288020188555050505b505050505050565b61160580620007856000396000f3fe608060405234801561001057600080fd5b50600436106100a95760003560e01c80634a79d50c116100715780634a79d50c146101405780637284e4161461015e578063c24a0f8b1461017c578063d4f50f981461019a578063dc9a1535146101cb578063f4ab9adf146101e9576100a9565b806306a49fce146100ae5780630b97bc86146100cc5780632d35a8a2146100ea5780633eb76b9c14610108578063462e91ec14610124575b600080fd5b6100b6610205565b6040516100c39190610c48565b60405180910390f35b6100d461037a565b6040516100e19190610c79565b60405180910390f35b6100f2610380565b6040516100ff9190610c79565b60405180910390f35b610122600480360381019061011d9190610cd4565b610386565b005b61013e60048036038101906101399190610e36565b610606565b005b61014861070b565b6040516101559190610ec9565b60405180910390f35b610166610799565b6040516101739190610ec9565b60405180910390f35b610184610827565b6040516101919190610c79565b60405180910390f35b6101b460048036038101906101af9190610f49565b61082d565b6040516101c2929190610f91565b60405180910390f35b6101d36108b7565b6040516101e09190610fba565b60405180910390f35b61020360048036038101906101fe9190610f49565b6108ca565b005b6060600060055467ffffffffffffffff81111561022557610224610d0b565b5b60405190808252806020026020018201604052801561025e57816020015b61024b610a6c565b8152602001906001900390816102435790505b5090506000600190505b60055481116103725760066000828152602001908152602001600020604051806060016040529081600082015481526020016001820180546102a990611004565b80601f01602080910402602001604051908101604052809291908181526020018280546102d590611004565b80156103225780601f106102f757610100808354040283529160200191610322565b820191906000526020600020905b81548152906001019060200180831161030557829003601f168201915b50505050508152602001600282015481525050826001836103439190611064565b8151811061035457610353611098565b5b6020026020010181905250808061036a906110c7565b915050610268565b508091505090565b60035481565b60055481565b6003544210156103cb576040517f08c379a00000000000000000000000000000000000000000000000000000000081526004016103c29061115b565b60405180910390fd5b600454421115610410576040517f08c379a0000000000000000000000000000000000000000000000000000000008152600401610407906111c7565b60405180910390fd5b600760003373ffffffffffffffffffffffffffffffffffffffff1673ffffffffffffffffffffffffffffffffffffffff16815260200190815260200160002060000160009054906101000a900460ff16156104a0576040517f08c379a000000000000000000000000000000000000000000000000000000000815260040161049790611233565b60405180910390fd5b6000811180156104b257506005548111155b6104f1576040517f08c379a00000000000000000000000000000000000000000000000000000000081526004016104e8906112c5565b60405180910390fd5b6001600760003373ffffffffffffffffffffffffffffffffffffffff1673ffffffffffffffffffffffffffffffffffffffff16815260200190815260200160002060000160006101000a81548160ff02191690831515021790555080600760003373ffffffffffffffffffffffffffffffffffffffff1673ffffffffffffffffffffffffffffffffffffffff168152602001908152602001600020600101819055506006600082815260200190815260200160002060020160008154809291906105ba906110c7565b9190505550803373ffffffffffffffffffffffffffffffffffffffff167fa36cc2bebb74db33e9f88110a07ef56e1b31b24b4c4f51b54b1664266e29f45b60405160405180910390a350565b60035442101561064b576040517f08c379a00000000000000000000000000000000000000000000000000000000081526004016106429061115b565b60405180910390fd5b600454421115610690576040517f08c379a0000000000000000000000000000000000000000000000000000000008152600401610687906111c7565b60405180910390fd5b600560008154809291906106a3906110c7565b91905055506040518060600160405280600554815260200182815260200160008152506006600060055481526020019081526020016000206000820151816000015560208201518160010190816106fa9190611491565b506040820151816002015590505050565b6000805461071890611004565b80601f016020809104026020016040519081016040528092919081815260200182805461074490611004565b80156107915780601f1061076657610100808354040283529160200191610791565b820191906000526020600020905b81548152906001019060200180831161077457829003601f168201915b505050505081565b600180546107a690611004565b80601f01602080910402602001604051908101604052809291908181526020018280546107d290611004565b801561081f5780601f106107f45761010080835404028352916020019161081f565b820191906000526020600020905b81548152906001019060200180831161080257829003601f168201915b505050505081565b60045481565b6000806000600760008573ffffffffffffffffffffffffffffffffffffffff1673ffffffffffffffffffffffffffffffffffffffff1681526020019081526020016000206040518060400160405290816000820160009054906101000a900460ff161515151581526020016001820154815250509050806000015181602001519250925050915091565b600260009054906101000a900460ff1681565b60035442101561090f576040517f08c379a00000000000000000000000000000000000000000000000000000000081526004016109069061115b565b60405180910390fd5b600454421115610954576040517f08c379a000000000000000000000000000000000000000000000000000000000815260040161094b906111c7565b60405180910390fd5b600760008273ffffffffffffffffffffffffffffffffffffffff1673ffffffffffffffffffffffffffffffffffffffff16815260200190815260200160002060000160009054906101000a900460ff16156109e4576040517f08c379a00000000000000000000000000000000000000000000000000000000081526004016109db906115af565b60405180910390fd5b60405180604001604052806000151581526020016000815250600760008373ffffffffffffffffffffffffffffffffffffffff1673ffffffffffffffffffffffffffffffffffffffff16815260200190815260200160002060008201518160000160006101000a81548160ff0219169083151502179055506020820151816001015590505050565b60405180606001604052806000815260200160608152602001600081525090565b600081519050919050565b600082825260208201905092915050565b6000819050602082019050919050565b6000819050919050565b610acc81610ab9565b82525050565b600081519050919050565b600082825260208201905092915050565b60005b83811015610b0c578082015181840152602081019050610af1565b60008484015250505050565b6000601f19601f8301169050919050565b6000610b3482610ad2565b610b3e8185610add565b9350610b4e818560208601610aee565b610b5781610b18565b840191505092915050565b6000606083016000830151610b7a6000860182610ac3565b5060208301518482036020860152610b928282610b29565b9150506040830151610ba76040860182610ac3565b508091505092915050565b6000610bbe8383610b62565b905092915050565b6000602082019050919050565b6000610bde82610a8d565b610be88185610a98565b935083602082028501610bfa85610aa9565b8060005b85811015610c365784840389528151610c178582610bb2565b9450610c2283610bc6565b925060208a01995050600181019050610bfe565b50829750879550505050505092915050565b60006020820190508181036000830152610c628184610bd3565b905092915050565b610c7381610ab9565b82525050565b6000602082019050610c8e6000830184610c6a565b92915050565b6000604051905090565b600080fd5b600080fd5b610cb181610ab9565b8114610cbc57600080fd5b50565b600081359050610cce81610ca8565b92915050565b600060208284031215610cea57610ce9610c9e565b5b6000610cf884828501610cbf565b91505092915050565b600080fd5b600080fd5b7f4e487b7100000000000000000000000000000000000000000000000000000000600052604160045260246000fd5b610d4382610b18565b810181811067ffffffffffffffff82111715610d6257610d61610d0b565b5b80604052505050565b6000610d75610c94565b9050610d818282610d3a565b919050565b600067ffffffffffffffff821115610da157610da0610d0b565b5b610daa82610b18565b9050602081019050919050565b82818337600083830152505050565b6000610dd9610dd484610d86565b610d6b565b905082815260208101848484011115610df557610df4610d06565b5b610e00848285610db7565b509392505050565b600082601f830112610e1d57610e1c610d01565b5b8135610e2d848260208601610dc6565b91505092915050565b600060208284031215610e4c57610e4b610c9e565b5b600082013567ffffffffffffffff811115610e6a57610e69610ca3565b5b610e7684828501610e08565b91505092915050565b600082825260208201905092915050565b6000610e9b82610ad2565b610ea58185610e7f565b9350610eb5818560208601610aee565b610ebe81610b18565b840191505092915050565b60006020820190508181036000830152610ee38184610e90565b905092915050565b600073ffffffffffffffffffffffffffffffffffffffff82169050919050565b6000610f1682610eeb565b9050919050565b610f2681610f0b565b8114610f3157600080fd5b50565b600081359050610f4381610f1d565b92915050565b600060208284031215610f5f57610f5e610c9e565b5b6000610f6d84828501610f34565b91505092915050565b60008115159050919050565b610f8b81610f76565b82525050565b6000604082019050610fa66000830185610f82565b610fb36020830184610c6a565b9392505050565b6000602082019050610fcf6000830184610f82565b92915050565b7f4e487b7100000000000000000000000000000000000000000000000000000000600052602260045260246000fd5b6000600282049050600182168061101c57607f821691505b60208210810361102f5761102e610fd5565b5b50919050565b7f4e487b7100000000000000000000000000000000000000000000000000000000600052601160045260246000fd5b600061106f82610ab9565b915061107a83610ab9565b925082820390508181111561109257611091611035565b5b92915050565b7f4e487b7100000000000000000000000000000000000000000000000000000000600052603260045260246000fd5b60006110d282610ab9565b91507fffffffffffffffffffffffffffffffffffffffffffffffffffffffffffffffff820361110457611103611035565b5b600182019050919050565b7f456c656374696f6e20686173206e6f7420737461727465642079657400000000600082015250565b6000611145601c83610e7f565b91506111508261110f565b602082019050919050565b6000602082019050818103600083015261117481611138565b9050919050565b7f456c656374696f6e2068617320656e6465640000000000000000000000000000600082015250565b60006111b1601283610e7f565b91506111bc8261117b565b602082019050919050565b600060208201905081810360008301526111e0816111a4565b9050919050565b7f596f75206861766520616c726561647920766f7465642e000000000000000000600082015250565b600061121d601783610e7f565b9150611228826111e7565b602082019050919050565b6000602082019050818103600083015261124c81611210565b9050919050565b7f496e76616c69642063616e6469646174652e20506c6561736520656e7465722060008201527f612076616c69642063616e646964617465204944000000000000000000000000602082015250565b60006112af603483610e7f565b91506112ba82611253565b604082019050919050565b600060208201905081810360008301526112de816112a2565b9050919050565b60008190508160005260206000209050919050565b60006020601f8301049050919050565b600082821b905092915050565b6000600883026113477fffffffffffffffffffffffffffffffffffffffffffffffffffffffffffffffff8261130a565b611351868361130a565b95508019841693508086168417925050509392505050565b6000819050919050565b600061138e61138961138484610ab9565b611369565b610ab9565b9050919050565b6000819050919050565b6113a883611373565b6113bc6113b482611395565b848454611317565b825550505050565b600090565b6113d16113c4565b6113dc81848461139f565b505050565b5b81811015611400576113f56000826113c9565b6001810190506113e2565b5050565b601f82111561144557611416816112e5565b61141f846112fa565b8101602085101561142e578190505b61144261143a856112fa565b8301826113e1565b50505b505050565b600082821c905092915050565b60006114686000198460080261144a565b1980831691505092915050565b60006114818383611457565b9150826002028217905092915050565b61149a82610ad2565b67ffffffffffffffff8111156114b3576114b2610d0b565b5b6114bd8254611004565b6114c8828285611404565b600060209050601f8311600181146114fb57600084156114e9578287015190505b6114f38582611475565b86555061155b565b601f198416611509866112e5565b60005b828110156115315784890151825560018201915060208501945060208101905061150c565b8683101561154e578489015161154a601f891682611457565b8355505b6001600288020188555050505b505050505050565b7f566f74657220697320616c726561647920726567697374657265640000000000600082015250565b6000611599601b83610e7f565b91506115a482611563565b602082019050919050565b600060208201905081810360008301526115c88161158c565b905091905056fea2646970667358221220dbdfa739574332ff15c8375896e3cf664c2dc89d869141303a59acba6b6d059764736f6c63430008180033a2646970667358221220ef8500f945171186597617862978a4a397afbb49ca29af57acad55637a1a3b0864736f6c63430008180033",
          "opcodes": "PUSH1 0x80 PUSH1 0x40 MSTORE CALLVALUE DUP1 ISZERO PUSH2 0x10 JUMPI PUSH1 0x0 DUP1 REVERT JUMPDEST POP CALLER PUSH1 0x0 DUP1 PUSH2 0x100 EXP DUP2 SLOAD DUP2 PUSH20 0xFFFFFFFFFFFFFFFFFFFFFFFFFFFFFFFFFFFFFFFF MUL NOT AND SWAP1 DUP4 PUSH20 0xFFFFFFFFFFFFFFFFFFFFFFFFFFFFFFFFFFFFFFFF AND MUL OR SWAP1 SSTORE POP PUSH2 0x276C DUP1 PUSH2 0x60 PUSH1 0x0 CODECOPY PUSH1 0x0 RETURN INVALID PUSH1 0x80 PUSH1 0x40 MSTORE CALLVALUE DUP1 ISZERO PUSH3 0x11 JUMPI PUSH1 0x0 DUP1 REVERT JUMPDEST POP PUSH1 0x4 CALLDATASIZE LT PUSH3 0x5E JUMPI PUSH1 0x0 CALLDATALOAD PUSH1 0xE0 SHR DUP1 PUSH4 0x721F1C6D EQ PUSH3 0x63 JUMPI DUP1 PUSH4 0x740C47D4 EQ PUSH3 0x83 JUMPI DUP1 PUSH4 0x893D20E8 EQ PUSH3 0xA3 JUMPI DUP1 PUSH4 0x9F3A7F52 EQ PUSH3 0xC5 JUMPI DUP1 PUSH4 0xA9392E0C EQ PUSH3 0xE7 JUMPI JUMPDEST PUSH1 0x0 DUP1 REVERT JUMPDEST PUSH3 0x81 PUSH1 0x4 DUP1 CALLDATASIZE SUB DUP2 ADD SWAP1 PUSH3 0x7B SWAP2 SWAP1 PUSH3 0x58C JUMP JUMPDEST PUSH3 0x109 JUMP JUMPDEST STOP JUMPDEST PUSH3 0xA1 PUSH1 0x4 DUP1 CALLDATASIZE SUB DUP2 ADD SWAP1 PUSH3 0x9B SWAP2 SWAP1 PUSH3 0x652 JUMP JUMPDEST PUSH3 0x1F2 JUMP JUMPDEST STOP JUMPDEST PUSH3 0xAD PUSH3 0x2CA JUMP JUMPDEST PUSH1 0x40 MLOAD PUSH3 0xBC SWAP2 SWAP1 PUSH3 0x6C9 JUMP JUMPDEST PUSH1 0x40 MLOAD DUP1 SWAP2 SUB SWAP1 RETURN JUMPDEST PUSH3 0xCF PUSH3 0x2F3 JUMP JUMPDEST PUSH1 0x40 MLOAD PUSH3 0xDE SWAP2 SWAP1 PUSH3 0x7B4 JUMP JUMPDEST PUSH1 0x40 MLOAD DUP1 SWAP2 SUB SWAP1 RETURN JUMPDEST PUSH3 0xF1 PUSH3 0x383 JUMP JUMPDEST PUSH1 0x40 MLOAD PUSH3 0x100 SWAP2 SWAP1 PUSH3 0x7E9 JUMP JUMPDEST PUSH1 0x40 MLOAD DUP1 SWAP2 SUB SWAP1 RETURN JUMPDEST PUSH1 0x0 DUP6 DUP6 DUP6 DUP6 DUP6 PUSH1 0x40 MLOAD PUSH3 0x11E SWAP1 PUSH3 0x390 JUMP JUMPDEST PUSH3 0x12E SWAP6 SWAP5 SWAP4 SWAP3 SWAP2 SWAP1 PUSH3 0x8A0 JUMP JUMPDEST PUSH1 0x40 MLOAD DUP1 SWAP2 SUB SWAP1 PUSH1 0x0 CREATE DUP1 ISZERO DUP1 ISZERO PUSH3 0x14B JUMPI RETURNDATASIZE PUSH1 0x0 DUP1 RETURNDATACOPY RETURNDATASIZE PUSH1 0x0 REVERT JUMPDEST POP SWAP1 POP PUSH1 0x1 DUP2 SWAP1 DUP1 PUSH1 0x1 DUP2 SLOAD ADD DUP1 DUP3 SSTORE DUP1 SWAP2 POP POP PUSH1 0x1 SWAP1 SUB SWAP1 PUSH1 0x0 MSTORE PUSH1 0x20 PUSH1 0x0 KECCAK256 ADD PUSH1 0x0 SWAP1 SWAP2 SWAP1 SWAP2 SWAP1 SWAP2 PUSH2 0x100 EXP DUP2 SLOAD DUP2 PUSH20 0xFFFFFFFFFFFFFFFFFFFFFFFFFFFFFFFFFFFFFFFF MUL NOT AND SWAP1 DUP4 PUSH20 0xFFFFFFFFFFFFFFFFFFFFFFFFFFFFFFFFFFFFFFFF AND MUL OR SWAP1 SSTORE POP PUSH32 0x3BF25A9DFA34D3F99EEC4217177EC490F7A345EE390DE1E739E9C816A37122F0 DUP2 PUSH1 0x40 MLOAD PUSH3 0x1E2 SWAP2 SWAP1 PUSH3 0x6C9 JUMP JUMPDEST PUSH1 0x40 MLOAD DUP1 SWAP2 SUB SWAP1 LOG1 POP POP POP POP POP POP JUMP JUMPDEST PUSH1 0x0 DUP1 SLOAD SWAP1 PUSH2 0x100 EXP SWAP1 DIV PUSH20 0xFFFFFFFFFFFFFFFFFFFFFFFFFFFFFFFFFFFFFFFF AND PUSH20 0xFFFFFFFFFFFFFFFFFFFFFFFFFFFFFFFFFFFFFFFF AND CALLER PUSH20 0xFFFFFFFFFFFFFFFFFFFFFFFFFFFFFFFFFFFFFFFF AND EQ PUSH3 0x283 JUMPI PUSH1 0x40 MLOAD PUSH32 0x8C379A000000000000000000000000000000000000000000000000000000000 DUP2 MSTORE PUSH1 0x4 ADD PUSH3 0x27A SWAP1 PUSH3 0x95B JUMP JUMPDEST PUSH1 0x40 MLOAD DUP1 SWAP2 SUB SWAP1 REVERT JUMPDEST PUSH1 0x1 DUP2 DUP2 SLOAD DUP2 LT PUSH3 0x29A JUMPI PUSH3 0x299 PUSH3 0x97D JUMP JUMPDEST JUMPDEST SWAP1 PUSH1 0x0 MSTORE PUSH1 0x20 PUSH1 0x0 KECCAK256 ADD PUSH1 0x0 PUSH2 0x100 EXP DUP2 SLOAD SWAP1 PUSH20 0xFFFFFFFFFFFFFFFFFFFFFFFFFFFFFFFFFFFFFFFF MUL NOT AND SWAP1 SSTORE POP JUMP JUMPDEST PUSH1 0x0 DUP1 PUSH1 0x0 SWAP1 SLOAD SWAP1 PUSH2 0x100 EXP SWAP1 DIV PUSH20 0xFFFFFFFFFFFFFFFFFFFFFFFFFFFFFFFFFFFFFFFF AND SWAP1 POP SWAP1 JUMP JUMPDEST PUSH1 0x60 PUSH1 0x1 DUP1 SLOAD DUP1 PUSH1 0x20 MUL PUSH1 0x20 ADD PUSH1 0x40 MLOAD SWAP1 DUP2 ADD PUSH1 0x40 MSTORE DUP1 SWAP3 SWAP2 SWAP1 DUP2 DUP2 MSTORE PUSH1 0x20 ADD DUP3 DUP1 SLOAD DUP1 ISZERO PUSH3 0x379 JUMPI PUSH1 0x20 MUL DUP3 ADD SWAP2 SWAP1 PUSH1 0x0 MSTORE PUSH1 0x20 PUSH1 0x0 KECCAK256 SWAP1 JUMPDEST DUP2 PUSH1 0x0 SWAP1 SLOAD SWAP1 PUSH2 0x100 EXP SWAP1 DIV PUSH20 0xFFFFFFFFFFFFFFFFFFFFFFFFFFFFFFFFFFFFFFFF AND PUSH20 0xFFFFFFFFFFFFFFFFFFFFFFFFFFFFFFFFFFFFFFFF AND DUP2 MSTORE PUSH1 0x20 ADD SWAP1 PUSH1 0x1 ADD SWAP1 DUP1 DUP4 GT PUSH3 0x32E JUMPI JUMPDEST POP POP POP POP POP SWAP1 POP SWAP1 JUMP JUMPDEST PUSH1 0x0 PUSH1 0x1 DUP1 SLOAD SWAP1 POP SWAP1 POP SWAP1 JUMP JUMPDEST PUSH2 0x1D8A DUP1 PUSH3 0x9AD DUP4 CODECOPY ADD SWAP1 JUMP JUMPDEST PUSH1 0x0 PUSH1 0x40 MLOAD SWAP1 POP SWAP1 JUMP JUMPDEST PUSH1 0x0 DUP1 REVERT JUMPDEST PUSH1 0x0 DUP1 REVERT JUMPDEST PUSH1 0x0 DUP1 REVERT JUMPDEST PUSH1 0x0 DUP1 REVERT JUMPDEST PUSH1 0x0 PUSH1 0x1F NOT PUSH1 0x1F DUP4 ADD AND SWAP1 POP SWAP2 SWAP1 POP JUMP JUMPDEST PUSH32 0x4E487B7100000000000000000000000000000000000000000000000000000000 PUSH1 0x0 MSTORE PUSH1 0x41 PUSH1 0x4 MSTORE PUSH1 0x24 PUSH1 0x0 REVERT JUMPDEST PUSH3 0x407 DUP3 PUSH3 0x3BC JUMP JUMPDEST DUP2 ADD DUP2 DUP2 LT PUSH8 0xFFFFFFFFFFFFFFFF DUP3 GT OR ISZERO PUSH3 0x429 JUMPI PUSH3 0x428 PUSH3 0x3CD JUMP JUMPDEST JUMPDEST DUP1 PUSH1 0x40 MSTORE POP POP POP JUMP JUMPDEST PUSH1 0x0 PUSH3 0x43E PUSH3 0x39E JUMP JUMPDEST SWAP1 POP PUSH3 0x44C DUP3 DUP3 PUSH3 0x3FC JUMP JUMPDEST SWAP2 SWAP1 POP JUMP JUMPDEST PUSH1 0x0 PUSH8 0xFFFFFFFFFFFFFFFF DUP3 GT ISZERO PUSH3 0x46F JUMPI PUSH3 0x46E PUSH3 0x3CD JUMP JUMPDEST JUMPDEST PUSH3 0x47A DUP3 PUSH3 0x3BC JUMP JUMPDEST SWAP1 POP PUSH1 0x20 DUP2 ADD SWAP1 POP SWAP2 SWAP1 POP JUMP JUMPDEST DUP3 DUP2 DUP4 CALLDATACOPY PUSH1 0x0 DUP4 DUP4 ADD MSTORE POP POP POP JUMP JUMPDEST PUSH1 0x0 PUSH3 0x4AD PUSH3 0x4A7 DUP5 PUSH3 0x451 JUMP JUMPDEST PUSH3 0x432 JUMP JUMPDEST SWAP1 POP DUP3 DUP2 MSTORE PUSH1 0x20 DUP2 ADD DUP5 DUP5 DUP5 ADD GT ISZERO PUSH3 0x4CC JUMPI PUSH3 0x4CB PUSH3 0x3B7 JUMP JUMPDEST JUMPDEST PUSH3 0x4D9 DUP5 DUP3 DUP6 PUSH3 0x487 JUMP JUMPDEST POP SWAP4 SWAP3 POP POP POP JUMP JUMPDEST PUSH1 0x0 DUP3 PUSH1 0x1F DUP4 ADD SLT PUSH3 0x4F9 JUMPI PUSH3 0x4F8 PUSH3 0x3B2 JUMP JUMPDEST JUMPDEST DUP2 CALLDATALOAD PUSH3 0x50B DUP5 DUP3 PUSH1 0x20 DUP7 ADD PUSH3 0x496 JUMP JUMPDEST SWAP2 POP POP SWAP3 SWAP2 POP POP JUMP JUMPDEST PUSH1 0x0 DUP2 ISZERO ISZERO SWAP1 POP SWAP2 SWAP1 POP JUMP JUMPDEST PUSH3 0x52B DUP2 PUSH3 0x514 JUMP JUMPDEST DUP2 EQ PUSH3 0x537 JUMPI PUSH1 0x0 DUP1 REVERT JUMPDEST POP JUMP JUMPDEST PUSH1 0x0 DUP2 CALLDATALOAD SWAP1 POP PUSH3 0x54B DUP2 PUSH3 0x520 JUMP JUMPDEST SWAP3 SWAP2 POP POP JUMP JUMPDEST PUSH1 0x0 DUP2 SWAP1 POP SWAP2 SWAP1 POP JUMP JUMPDEST PUSH3 0x566 DUP2 PUSH3 0x551 JUMP JUMPDEST DUP2 EQ PUSH3 0x572 JUMPI PUSH1 0x0 DUP1 REVERT JUMPDEST POP JUMP JUMPDEST PUSH1 0x0 DUP2 CALLDATALOAD SWAP1 POP PUSH3 0x586 DUP2 PUSH3 0x55B JUMP JUMPDEST SWAP3 SWAP2 POP POP JUMP JUMPDEST PUSH1 0x0 DUP1 PUSH1 0x0 DUP1 PUSH1 0x0 PUSH1 0xA0 DUP7 DUP9 SUB SLT ISZERO PUSH3 0x5AB JUMPI PUSH3 0x5AA PUSH3 0x3A8 JUMP JUMPDEST JUMPDEST PUSH1 0x0 DUP7 ADD CALLDATALOAD PUSH8 0xFFFFFFFFFFFFFFFF DUP2 GT ISZERO PUSH3 0x5CC JUMPI PUSH3 0x5CB PUSH3 0x3AD JUMP JUMPDEST JUMPDEST PUSH3 0x5DA DUP9 DUP3 DUP10 ADD PUSH3 0x4E1 JUMP JUMPDEST SWAP6 POP POP PUSH1 0x20 DUP7 ADD CALLDATALOAD PUSH8 0xFFFFFFFFFFFFFFFF DUP2 GT ISZERO PUSH3 0x5FE JUMPI PUSH3 0x5FD PUSH3 0x3AD JUMP JUMPDEST JUMPDEST PUSH3 0x60C DUP9 DUP3 DUP10 ADD PUSH3 0x4E1 JUMP JUMPDEST SWAP5 POP POP PUSH1 0x40 PUSH3 0x61F DUP9 DUP3 DUP10 ADD PUSH3 0x53A JUMP JUMPDEST SWAP4 POP POP PUSH1 0x60 PUSH3 0x632 DUP9 DUP3 DUP10 ADD PUSH3 0x575 JUMP JUMPDEST SWAP3 POP POP PUSH1 0x80 PUSH3 0x645 DUP9 DUP3 DUP10 ADD PUSH3 0x575 JUMP JUMPDEST SWAP2 POP POP SWAP3 SWAP6 POP SWAP3 SWAP6 SWAP1 SWAP4 POP JUMP JUMPDEST PUSH1 0x0 PUSH1 0x20 DUP3 DUP5 SUB SLT ISZERO PUSH3 0x66B JUMPI PUSH3 0x66A PUSH3 0x3A8 JUMP JUMPDEST JUMPDEST PUSH1 0x0 PUSH3 0x67B DUP5 DUP3 DUP6 ADD PUSH3 0x575 JUMP JUMPDEST SWAP2 POP POP SWAP3 SWAP2 POP POP JUMP JUMPDEST PUSH1 0x0 PUSH20 0xFFFFFFFFFFFFFFFFFFFFFFFFFFFFFFFFFFFFFFFF DUP3 AND SWAP1 POP SWAP2 SWAP1 POP JUMP JUMPDEST PUSH1 0x0 PUSH3 0x6B1 DUP3 PUSH3 0x684 JUMP JUMPDEST SWAP1 POP SWAP2 SWAP1 POP JUMP JUMPDEST PUSH3 0x6C3 DUP2 PUSH3 0x6A4 JUMP JUMPDEST DUP3 MSTORE POP POP JUMP JUMPDEST PUSH1 0x0 PUSH1 0x20 DUP3 ADD SWAP1 POP PUSH3 0x6E0 PUSH1 0x0 DUP4 ADD DUP5 PUSH3 0x6B8 JUMP JUMPDEST SWAP3 SWAP2 POP POP JUMP JUMPDEST PUSH1 0x0 DUP2 MLOAD SWAP1 POP SWAP2 SWAP1 POP JUMP JUMPDEST PUSH1 0x0 DUP3 DUP3 MSTORE PUSH1 0x20 DUP3 ADD SWAP1 POP SWAP3 SWAP2 POP POP JUMP JUMPDEST PUSH1 0x0 DUP2 SWAP1 POP PUSH1 0x20 DUP3 ADD SWAP1 POP SWAP2 SWAP1 POP JUMP JUMPDEST PUSH3 0x71D DUP2 PUSH3 0x6A4 JUMP JUMPDEST DUP3 MSTORE POP POP JUMP JUMPDEST PUSH1 0x0 PUSH3 0x731 DUP4 DUP4 PUSH3 0x712 JUMP JUMPDEST PUSH1 0x20 DUP4 ADD SWAP1 POP SWAP3 SWAP2 POP POP JUMP JUMPDEST PUSH1 0x0 PUSH1 0x20 DUP3 ADD SWAP1 POP SWAP2 SWAP1 POP JUMP JUMPDEST PUSH1 0x0 PUSH3 0x757 DUP3 PUSH3 0x6E6 JUMP JUMPDEST PUSH3 0x763 DUP2 DUP6 PUSH3 0x6F1 JUMP JUMPDEST SWAP4 POP PUSH3 0x770 DUP4 PUSH3 0x702 JUMP JUMPDEST DUP1 PUSH1 0x0 JUMPDEST DUP4 DUP2 LT ISZERO PUSH3 0x7A7 JUMPI DUP2 MLOAD PUSH3 0x78B DUP9 DUP3 PUSH3 0x723 JUMP JUMPDEST SWAP8 POP PUSH3 0x798 DUP4 PUSH3 0x73D JUMP JUMPDEST SWAP3 POP POP PUSH1 0x1 DUP2 ADD SWAP1 POP PUSH3 0x774 JUMP JUMPDEST POP DUP6 SWAP4 POP POP POP POP SWAP3 SWAP2 POP POP JUMP JUMPDEST PUSH1 0x0 PUSH1 0x20 DUP3 ADD SWAP1 POP DUP2 DUP2 SUB PUSH1 0x0 DUP4 ADD MSTORE PUSH3 0x7D0 DUP2 DUP5 PUSH3 0x74A JUMP JUMPDEST SWAP1 POP SWAP3 SWAP2 POP POP JUMP JUMPDEST PUSH3 0x7E3 DUP2 PUSH3 0x551 JUMP JUMPDEST DUP3 MSTORE POP POP JUMP JUMPDEST PUSH1 0x0 PUSH1 0x20 DUP3 ADD SWAP1 POP PUSH3 0x800 PUSH1 0x0 DUP4 ADD DUP5 PUSH3 0x7D8 JUMP JUMPDEST SWAP3 SWAP2 POP POP JUMP JUMPDEST PUSH1 0x0 DUP2 MLOAD SWAP1 POP SWAP2 SWAP1 POP JUMP JUMPDEST PUSH1 0x0 DUP3 DUP3 MSTORE PUSH1 0x20 DUP3 ADD SWAP1 POP SWAP3 SWAP2 POP POP JUMP JUMPDEST PUSH1 0x0 JUMPDEST DUP4 DUP2 LT ISZERO PUSH3 0x842 JUMPI DUP1 DUP3 ADD MLOAD DUP2 DUP5 ADD MSTORE PUSH1 0x20 DUP2 ADD SWAP1 POP PUSH3 0x825 JUMP JUMPDEST PUSH1 0x0 DUP5 DUP5 ADD MSTORE POP POP POP POP JUMP JUMPDEST PUSH1 0x0 PUSH3 0x85B DUP3 PUSH3 0x806 JUMP JUMPDEST PUSH3 0x867 DUP2 DUP6 PUSH3 0x811 JUMP JUMPDEST SWAP4 POP PUSH3 0x879 DUP2 DUP6 PUSH1 0x20 DUP7 ADD PUSH3 0x822 JUMP JUMPDEST PUSH3 0x884 DUP2 PUSH3 0x3BC JUMP JUMPDEST DUP5 ADD SWAP2 POP POP SWAP3 SWAP2 POP POP JUMP JUMPDEST PUSH3 0x89A DUP2 PUSH3 0x514 JUMP JUMPDEST DUP3 MSTORE POP POP JUMP JUMPDEST PUSH1 0x0 PUSH1 0xA0 DUP3 ADD SWAP1 POP DUP2 DUP2 SUB PUSH1 0x0 DUP4 ADD MSTORE PUSH3 0x8BC DUP2 DUP9 PUSH3 0x84E JUMP JUMPDEST SWAP1 POP DUP2 DUP2 SUB PUSH1 0x20 DUP4 ADD MSTORE PUSH3 0x8D2 DUP2 DUP8 PUSH3 0x84E JUMP JUMPDEST SWAP1 POP PUSH3 0x8E3 PUSH1 0x40 DUP4 ADD DUP7 PUSH3 0x88F JUMP JUMPDEST PUSH3 0x8F2 PUSH1 0x60 DUP4 ADD DUP6 PUSH3 0x7D8 JUMP JUMPDEST PUSH3 0x901 PUSH1 0x80 DUP4 ADD DUP5 PUSH3 0x7D8 JUMP JUMPDEST SWAP7 SWAP6 POP POP POP POP POP POP JUMP JUMPDEST PUSH32 0x596F7520617265206E6F7420746865206F776E65720000000000000000000000 PUSH1 0x0 DUP3 ADD MSTORE POP JUMP JUMPDEST PUSH1 0x0 PUSH3 0x943 PUSH1 0x15 DUP4 PUSH3 0x811 JUMP JUMPDEST SWAP2 POP PUSH3 0x950 DUP3 PUSH3 0x90B JUMP JUMPDEST PUSH1 0x20 DUP3 ADD SWAP1 POP SWAP2 SWAP1 POP JUMP JUMPDEST PUSH1 0x0 PUSH1 0x20 DUP3 ADD SWAP1 POP DUP2 DUP2 SUB PUSH1 0x0 DUP4 ADD MSTORE PUSH3 0x976 DUP2 PUSH3 0x934 JUMP JUMPDEST SWAP1 POP SWAP2 SWAP1 POP JUMP JUMPDEST PUSH32 0x4E487B7100000000000000000000000000000000000000000000000000000000 PUSH1 0x0 MSTORE PUSH1 0x32 PUSH1 0x4 MSTORE PUSH1 0x24 PUSH1 0x0 REVERT INVALID PUSH1 0x80 PUSH1 0x40 MSTORE CALLVALUE DUP1 ISZERO PUSH3 0x11 JUMPI PUSH1 0x0 DUP1 REVERT JUMPDEST POP PUSH1 0x40 MLOAD PUSH3 0x1D8A CODESIZE SUB DUP1 PUSH3 0x1D8A DUP4 CODECOPY DUP2 DUP2 ADD PUSH1 0x40 MSTORE DUP2 ADD SWAP1 PUSH3 0x37 SWAP2 SWAP1 PUSH3 0x2DE JUMP JUMPDEST DUP1 DUP3 LT PUSH3 0x7C JUMPI PUSH1 0x40 MLOAD PUSH32 0x8C379A000000000000000000000000000000000000000000000000000000000 DUP2 MSTORE PUSH1 0x4 ADD PUSH3 0x73 SWAP1 PUSH3 0x42B JUMP JUMPDEST PUSH1 0x40 MLOAD DUP1 SWAP2 SUB SWAP1 REVERT JUMPDEST DUP5 PUSH1 0x0 SWAP1 DUP2 PUSH3 0x8D SWAP2 SWAP1 PUSH3 0x68E JUMP JUMPDEST POP DUP4 PUSH1 0x1 SWAP1 DUP2 PUSH3 0x9F SWAP2 SWAP1 PUSH3 0x68E JUMP JUMPDEST POP DUP3 PUSH1 0x2 PUSH1 0x0 PUSH2 0x100 EXP DUP2 SLOAD DUP2 PUSH1 0xFF MUL NOT AND SWAP1 DUP4 ISZERO ISZERO MUL OR SWAP1 SSTORE POP DUP2 PUSH1 0x3 DUP2 SWAP1 SSTORE POP DUP1 PUSH1 0x4 DUP2 SWAP1 SSTORE POP POP POP POP POP POP PUSH3 0x775 JUMP JUMPDEST PUSH1 0x0 PUSH1 0x40 MLOAD SWAP1 POP SWAP1 JUMP JUMPDEST PUSH1 0x0 DUP1 REVERT JUMPDEST PUSH1 0x0 DUP1 REVERT JUMPDEST PUSH1 0x0 DUP1 REVERT JUMPDEST PUSH1 0x0 DUP1 REVERT JUMPDEST PUSH1 0x0 PUSH1 0x1F NOT PUSH1 0x1F DUP4 ADD AND SWAP1 POP SWAP2 SWAP1 POP JUMP JUMPDEST PUSH32 0x4E487B7100000000000000000000000000000000000000000000000000000000 PUSH1 0x0 MSTORE PUSH1 0x41 PUSH1 0x4 MSTORE PUSH1 0x24 PUSH1 0x0 REVERT JUMPDEST PUSH3 0x13C DUP3 PUSH3 0xF1 JUMP JUMPDEST DUP2 ADD DUP2 DUP2 LT PUSH8 0xFFFFFFFFFFFFFFFF DUP3 GT OR ISZERO PUSH3 0x15E JUMPI PUSH3 0x15D PUSH3 0x102 JUMP JUMPDEST JUMPDEST DUP1 PUSH1 0x40 MSTORE POP POP POP JUMP JUMPDEST PUSH1 0x0 PUSH3 0x173 PUSH3 0xD3 JUMP JUMPDEST SWAP1 POP PUSH3 0x181 DUP3 DUP3 PUSH3 0x131 JUMP JUMPDEST SWAP2 SWAP1 POP JUMP JUMPDEST PUSH1 0x0 PUSH8 0xFFFFFFFFFFFFFFFF DUP3 GT ISZERO PUSH3 0x1A4 JUMPI PUSH3 0x1A3 PUSH3 0x102 JUMP JUMPDEST JUMPDEST PUSH3 0x1AF DUP3 PUSH3 0xF1 JUMP JUMPDEST SWAP1 POP PUSH1 0x20 DUP2 ADD SWAP1 POP SWAP2 SWAP1 POP JUMP JUMPDEST PUSH1 0x0 JUMPDEST DUP4 DUP2 LT ISZERO PUSH3 0x1DC JUMPI DUP1 DUP3 ADD MLOAD DUP2 DUP5 ADD MSTORE PUSH1 0x20 DUP2 ADD SWAP1 POP PUSH3 0x1BF JUMP JUMPDEST PUSH1 0x0 DUP5 DUP5 ADD MSTORE POP POP POP POP JUMP JUMPDEST PUSH1 0x0 PUSH3 0x1FF PUSH3 0x1F9 DUP5 PUSH3 0x186 JUMP JUMPDEST PUSH3 0x167 JUMP JUMPDEST SWAP1 POP DUP3 DUP2 MSTORE PUSH1 0x20 DUP2 ADD DUP5 DUP5 DUP5 ADD GT ISZERO PUSH3 0x21E JUMPI PUSH3 0x21D PUSH3 0xEC JUMP JUMPDEST JUMPDEST PUSH3 0x22B DUP5 DUP3 DUP6 PUSH3 0x1BC JUMP JUMPDEST POP SWAP4 SWAP3 POP POP POP JUMP JUMPDEST PUSH1 0x0 DUP3 PUSH1 0x1F DUP4 ADD SLT PUSH3 0x24B JUMPI PUSH3 0x24A PUSH3 0xE7 JUMP JUMPDEST JUMPDEST DUP2 MLOAD PUSH3 0x25D DUP5 DUP3 PUSH1 0x20 DUP7 ADD PUSH3 0x1E8 JUMP JUMPDEST SWAP2 POP POP SWAP3 SWAP2 POP POP JUMP JUMPDEST PUSH1 0x0 DUP2 ISZERO ISZERO SWAP1 POP SWAP2 SWAP1 POP JUMP JUMPDEST PUSH3 0x27D DUP2 PUSH3 0x266 JUMP JUMPDEST DUP2 EQ PUSH3 0x289 JUMPI PUSH1 0x0 DUP1 REVERT JUMPDEST POP JUMP JUMPDEST PUSH1 0x0 DUP2 MLOAD SWAP1 POP PUSH3 0x29D DUP2 PUSH3 0x272 JUMP JUMPDEST SWAP3 SWAP2 POP POP JUMP JUMPDEST PUSH1 0x0 DUP2 SWAP1 POP SWAP2 SWAP1 POP JUMP JUMPDEST PUSH3 0x2B8 DUP2 PUSH3 0x2A3 JUMP JUMPDEST DUP2 EQ PUSH3 0x2C4 JUMPI PUSH1 0x0 DUP1 REVERT JUMPDEST POP JUMP JUMPDEST PUSH1 0x0 DUP2 MLOAD SWAP1 POP PUSH3 0x2D8 DUP2 PUSH3 0x2AD JUMP JUMPDEST SWAP3 SWAP2 POP POP JUMP JUMPDEST PUSH1 0x0 DUP1 PUSH1 0x0 DUP1 PUSH1 0x0 PUSH1 0xA0 DUP7 DUP9 SUB SLT ISZERO PUSH3 0x2FD JUMPI PUSH3 0x2FC PUSH3 0xDD JUMP JUMPDEST JUMPDEST PUSH1 0x0 DUP7 ADD MLOAD PUSH8 0xFFFFFFFFFFFFFFFF DUP2 GT ISZERO PUSH3 0x31E JUMPI PUSH3 0x31D PUSH3 0xE2 JUMP JUMPDEST JUMPDEST PUSH3 0x32C DUP9 DUP3 DUP10 ADD PUSH3 0x233 JUMP JUMPDEST SWAP6 POP POP PUSH1 0x20 DUP7 ADD MLOAD PUSH8 0xFFFFFFFFFFFFFFFF DUP2 GT ISZERO PUSH3 0x350 JUMPI PUSH3 0x34F PUSH3 0xE2 JUMP JUMPDEST JUMPDEST PUSH3 0x35E DUP9 DUP3 DUP10 ADD PUSH3 0x233 JUMP JUMPDEST SWAP5 POP POP PUSH1 0x40 PUSH3 0x371 DUP9 DUP3 DUP10 ADD PUSH3 0x28C JUMP JUMPDEST SWAP4 POP POP PUSH1 0x60 PUSH3 0x384 DUP9 DUP3 DUP10 ADD PUSH3 0x2C7 JUMP JUMPDEST SWAP3 POP POP PUSH1 0x80 PUSH3 0x397 DUP9 DUP3 DUP10 ADD PUSH3 0x2C7 JUMP JUMPDEST SWAP2 POP POP SWAP3 SWAP6 POP SWAP3 SWAP6 SWAP1 SWAP4 POP JUMP JUMPDEST PUSH1 0x0 DUP3 DUP3 MSTORE PUSH1 0x20 DUP3 ADD SWAP1 POP SWAP3 SWAP2 POP POP JUMP JUMPDEST PUSH32 0x53746172742064617465206D757374206265206265666F726520656E64206461 PUSH1 0x0 DUP3 ADD MSTORE PUSH32 0x7465000000000000000000000000000000000000000000000000000000000000 PUSH1 0x20 DUP3 ADD MSTORE POP JUMP JUMPDEST PUSH1 0x0 PUSH3 0x413 PUSH1 0x22 DUP4 PUSH3 0x3A4 JUMP JUMPDEST SWAP2 POP PUSH3 0x420 DUP3 PUSH3 0x3B5 JUMP JUMPDEST PUSH1 0x40 DUP3 ADD SWAP1 POP SWAP2 SWAP1 POP JUMP JUMPDEST PUSH1 0x0 PUSH1 0x20 DUP3 ADD SWAP1 POP DUP2 DUP2 SUB PUSH1 0x0 DUP4 ADD MSTORE PUSH3 0x446 DUP2 PUSH3 0x404 JUMP JUMPDEST SWAP1 POP SWAP2 SWAP1 POP JUMP JUMPDEST PUSH1 0x0 DUP2 MLOAD SWAP1 POP SWAP2 SWAP1 POP JUMP JUMPDEST PUSH32 0x4E487B7100000000000000000000000000000000000000000000000000000000 PUSH1 0x0 MSTORE PUSH1 0x22 PUSH1 0x4 MSTORE PUSH1 0x24 PUSH1 0x0 REVERT JUMPDEST PUSH1 0x0 PUSH1 0x2 DUP3 DIV SWAP1 POP PUSH1 0x1 DUP3 AND DUP1 PUSH3 0x4A0 JUMPI PUSH1 0x7F DUP3 AND SWAP2 POP JUMPDEST PUSH1 0x20 DUP3 LT DUP2 SUB PUSH3 0x4B6 JUMPI PUSH3 0x4B5 PUSH3 0x458 JUMP JUMPDEST JUMPDEST POP SWAP2 SWAP1 POP JUMP JUMPDEST PUSH1 0x0 DUP2 SWAP1 POP DUP2 PUSH1 0x0 MSTORE PUSH1 0x20 PUSH1 0x0 KECCAK256 SWAP1 POP SWAP2 SWAP1 POP JUMP JUMPDEST PUSH1 0x0 PUSH1 0x20 PUSH1 0x1F DUP4 ADD DIV SWAP1 POP SWAP2 SWAP1 POP JUMP JUMPDEST PUSH1 0x0 DUP3 DUP3 SHL SWAP1 POP SWAP3 SWAP2 POP POP JUMP JUMPDEST PUSH1 0x0 PUSH1 0x8 DUP4 MUL PUSH3 0x520 PUSH32 0xFFFFFFFFFFFFFFFFFFFFFFFFFFFFFFFFFFFFFFFFFFFFFFFFFFFFFFFFFFFFFFFF DUP3 PUSH3 0x4E1 JUMP JUMPDEST PUSH3 0x52C DUP7 DUP4 PUSH3 0x4E1 JUMP JUMPDEST SWAP6 POP DUP1 NOT DUP5 AND SWAP4 POP DUP1 DUP7 AND DUP5 OR SWAP3 POP POP POP SWAP4 SWAP3 POP POP POP JUMP JUMPDEST PUSH1 0x0 DUP2 SWAP1 POP SWAP2 SWAP1 POP JUMP JUMPDEST PUSH1 0x0 PUSH3 0x56F PUSH3 0x569 PUSH3 0x563 DUP5 PUSH3 0x2A3 JUMP JUMPDEST PUSH3 0x544 JUMP JUMPDEST PUSH3 0x2A3 JUMP JUMPDEST SWAP1 POP SWAP2 SWAP1 POP JUMP JUMPDEST PUSH1 0x0 DUP2 SWAP1 POP SWAP2 SWAP1 POP JUMP JUMPDEST PUSH3 0x58B DUP4 PUSH3 0x54E JUMP JUMPDEST PUSH3 0x5A3 PUSH3 0x59A DUP3 PUSH3 0x576 JUMP JUMPDEST DUP5 DUP5 SLOAD PUSH3 0x4EE JUMP JUMPDEST DUP3 SSTORE POP POP POP POP JUMP JUMPDEST PUSH1 0x0 SWAP1 JUMP JUMPDEST PUSH3 0x5BA PUSH3 0x5AB JUMP JUMPDEST PUSH3 0x5C7 DUP2 DUP5 DUP5 PUSH3 0x580 JUMP JUMPDEST POP POP POP JUMP JUMPDEST JUMPDEST DUP2 DUP2 LT ISZERO PUSH3 0x5EF JUMPI PUSH3 0x5E3 PUSH1 0x0 DUP3 PUSH3 0x5B0 JUMP JUMPDEST PUSH1 0x1 DUP2 ADD SWAP1 POP PUSH3 0x5CD JUMP JUMPDEST POP POP JUMP JUMPDEST PUSH1 0x1F DUP3 GT ISZERO PUSH3 0x63E JUMPI PUSH3 0x608 DUP2 PUSH3 0x4BC JUMP JUMPDEST PUSH3 0x613 DUP5 PUSH3 0x4D1 JUMP JUMPDEST DUP2 ADD PUSH1 0x20 DUP6 LT ISZERO PUSH3 0x623 JUMPI DUP2 SWAP1 POP JUMPDEST PUSH3 0x63B PUSH3 0x632 DUP6 PUSH3 0x4D1 JUMP JUMPDEST DUP4 ADD DUP3 PUSH3 0x5CC JUMP JUMPDEST POP POP JUMPDEST POP POP POP JUMP JUMPDEST PUSH1 0x0 DUP3 DUP3 SHR SWAP1 POP SWAP3 SWAP2 POP POP JUMP JUMPDEST PUSH1 0x0 PUSH3 0x663 PUSH1 0x0 NOT DUP5 PUSH1 0x8 MUL PUSH3 0x643 JUMP JUMPDEST NOT DUP1 DUP4 AND SWAP2 POP POP SWAP3 SWAP2 POP POP JUMP JUMPDEST PUSH1 0x0 PUSH3 0x67E DUP4 DUP4 PUSH3 0x650 JUMP JUMPDEST SWAP2 POP DUP3 PUSH1 0x2 MUL DUP3 OR SWAP1 POP SWAP3 SWAP2 POP POP JUMP JUMPDEST PUSH3 0x699 DUP3 PUSH3 0x44D JUMP JUMPDEST PUSH8 0xFFFFFFFFFFFFFFFF DUP2 GT ISZERO PUSH3 0x6B5 JUMPI PUSH3 0x6B4 PUSH3 0x102 JUMP JUMPDEST JUMPDEST PUSH3 0x6C1 DUP3 SLOAD PUSH3 0x487 JUMP JUMPDEST PUSH3 0x6CE DUP3 DUP3 DUP6 PUSH3 0x5F3 JUMP JUMPDEST PUSH1 0x0 PUSH1 0x20 SWAP1 POP PUSH1 0x1F DUP4 GT PUSH1 0x1 DUP2 EQ PUSH3 0x706 JUMPI PUSH1 0x0 DUP5 ISZERO PUSH3 0x6F1 JUMPI DUP3 DUP8 ADD MLOAD SWAP1 POP JUMPDEST PUSH3 0x6FD DUP6 DUP3 PUSH3 0x670 JUMP JUMPDEST DUP7 SSTORE POP PUSH3 0x76D JUMP JUMPDEST PUSH1 0x1F NOT DUP5 AND PUSH3 0x716 DUP7 PUSH3 0x4BC JUMP JUMPDEST PUSH1 0x0 JUMPDEST DUP3 DUP2 LT ISZERO PUSH3 0x740 JUMPI DUP5 DUP10 ADD MLOAD DUP3 SSTORE PUSH1 0x1 DUP3 ADD SWAP2 POP PUSH1 0x20 DUP6 ADD SWAP5 POP PUSH1 0x20 DUP2 ADD SWAP1 POP PUSH3 0x719 JUMP JUMPDEST DUP7 DUP4 LT ISZERO PUSH3 0x760 JUMPI DUP5 DUP10 ADD MLOAD PUSH3 0x75C PUSH1 0x1F DUP10 AND DUP3 PUSH3 0x650 JUMP JUMPDEST DUP4 SSTORE POP JUMPDEST PUSH1 0x1 PUSH1 0x2 DUP9 MUL ADD DUP9 SSTORE POP POP POP JUMPDEST POP POP POP POP POP POP JUMP JUMPDEST PUSH2 0x1605 DUP1 PUSH3 0x785 PUSH1 0x0 CODECOPY PUSH1 0x0 RETURN INVALID PUSH1 0x80 PUSH1 0x40 MSTORE CALLVALUE DUP1 ISZERO PUSH2 0x10 JUMPI PUSH1 0x0 DUP1 REVERT JUMPDEST POP PUSH1 0x4 CALLDATASIZE LT PUSH2 0xA9 JUMPI PUSH1 0x0 CALLDATALOAD PUSH1 0xE0 SHR DUP1 PUSH4 0x4A79D50C GT PUSH2 0x71 JUMPI DUP1 PUSH4 0x4A79D50C EQ PUSH2 0x140 JUMPI DUP1 PUSH4 0x7284E416 EQ PUSH2 0x15E JUMPI DUP1 PUSH4 0xC24A0F8B EQ PUSH2 0x17C JUMPI DUP1 PUSH4 0xD4F50F98 EQ PUSH2 0x19A JUMPI DUP1 PUSH4 0xDC9A1535 EQ PUSH2 0x1CB JUMPI DUP1 PUSH4 0xF4AB9ADF EQ PUSH2 0x1E9 JUMPI PUSH2 0xA9 JUMP JUMPDEST DUP1 PUSH4 0x6A49FCE EQ PUSH2 0xAE JUMPI DUP1 PUSH4 0xB97BC86 EQ PUSH2 0xCC JUMPI DUP1 PUSH4 0x2D35A8A2 EQ PUSH2 0xEA JUMPI DUP1 PUSH4 0x3EB76B9C EQ PUSH2 0x108 JUMPI DUP1 PUSH4 0x462E91EC EQ PUSH2 0x124 JUMPI JUMPDEST PUSH1 0x0 DUP1 REVERT JUMPDEST PUSH2 0xB6 PUSH2 0x205 JUMP JUMPDEST PUSH1 0x40 MLOAD PUSH2 0xC3 SWAP2 SWAP1 PUSH2 0xC48 JUMP JUMPDEST PUSH1 0x40 MLOAD DUP1 SWAP2 SUB SWAP1 RETURN JUMPDEST PUSH2 0xD4 PUSH2 0x37A JUMP JUMPDEST PUSH1 0x40 MLOAD PUSH2 0xE1 SWAP2 SWAP1 PUSH2 0xC79 JUMP JUMPDEST PUSH1 0x40 MLOAD DUP1 SWAP2 SUB SWAP1 RETURN JUMPDEST PUSH2 0xF2 PUSH2 0x380 JUMP JUMPDEST PUSH1 0x40 MLOAD PUSH2 0xFF SWAP2 SWAP1 PUSH2 0xC79 JUMP JUMPDEST PUSH1 0x40 MLOAD DUP1 SWAP2 SUB SWAP1 RETURN JUMPDEST PUSH2 0x122 PUSH1 0x4 DUP1 CALLDATASIZE SUB DUP2 ADD SWAP1 PUSH2 0x11D SWAP2 SWAP1 PUSH2 0xCD4 JUMP JUMPDEST PUSH2 0x386 JUMP JUMPDEST STOP JUMPDEST PUSH2 0x13E PUSH1 0x4 DUP1 CALLDATASIZE SUB DUP2 ADD SWAP1 PUSH2 0x139 SWAP2 SWAP1 PUSH2 0xE36 JUMP JUMPDEST PUSH2 0x606 JUMP JUMPDEST STOP JUMPDEST PUSH2 0x148 PUSH2 0x70B JUMP JUMPDEST PUSH1 0x40 MLOAD PUSH2 0x155 SWAP2 SWAP1 PUSH2 0xEC9 JUMP JUMPDEST PUSH1 0x40 MLOAD DUP1 SWAP2 SUB SWAP1 RETURN JUMPDEST PUSH2 0x166 PUSH2 0x799 JUMP JUMPDEST PUSH1 0x40 MLOAD PUSH2 0x173 SWAP2 SWAP1 PUSH2 0xEC9 JUMP JUMPDEST PUSH1 0x40 MLOAD DUP1 SWAP2 SUB SWAP1 RETURN JUMPDEST PUSH2 0x184 PUSH2 0x827 JUMP JUMPDEST PUSH1 0x40 MLOAD PUSH2 0x191 SWAP2 SWAP1 PUSH2 0xC79 JUMP JUMPDEST PUSH1 0x40 MLOAD DUP1 SWAP2 SUB SWAP1 RETURN JUMPDEST PUSH2 0x1B4 PUSH1 0x4 DUP1 CALLDATASIZE SUB DUP2 ADD SWAP1 PUSH2 0x1AF SWAP2 SWAP1 PUSH2 0xF49 JUMP JUMPDEST PUSH2 0x82D JUMP JUMPDEST PUSH1 0x40 MLOAD PUSH2 0x1C2 SWAP3 SWAP2 SWAP1 PUSH2 0xF91 JUMP JUMPDEST PUSH1 0x40 MLOAD DUP1 SWAP2 SUB SWAP1 RETURN JUMPDEST PUSH2 0x1D3 PUSH2 0x8B7 JUMP JUMPDEST PUSH1 0x40 MLOAD PUSH2 0x1E0 SWAP2 SWAP1 PUSH2 0xFBA JUMP JUMPDEST PUSH1 0x40 MLOAD DUP1 SWAP2 SUB SWAP1 RETURN JUMPDEST PUSH2 0x203 PUSH1 0x4 DUP1 CALLDATASIZE SUB DUP2 ADD SWAP1 PUSH2 0x1FE SWAP2 SWAP1 PUSH2 0xF49 JUMP JUMPDEST PUSH2 0x8CA JUMP JUMPDEST STOP JUMPDEST PUSH1 0x60 PUSH1 0x0 PUSH1 0x5 SLOAD PUSH8 0xFFFFFFFFFFFFFFFF DUP2 GT ISZERO PUSH2 0x225 JUMPI PUSH2 0x224 PUSH2 0xD0B JUMP JUMPDEST JUMPDEST PUSH1 0x40 MLOAD SWAP1 DUP1 DUP3 MSTORE DUP1 PUSH1 0x20 MUL PUSH1 0x20 ADD DUP3 ADD PUSH1 0x40 MSTORE DUP1 ISZERO PUSH2 0x25E JUMPI DUP2 PUSH1 0x20 ADD JUMPDEST PUSH2 0x24B PUSH2 0xA6C JUMP JUMPDEST DUP2 MSTORE PUSH1 0x20 ADD SWAP1 PUSH1 0x1 SWAP1 SUB SWAP1 DUP2 PUSH2 0x243 JUMPI SWAP1 POP JUMPDEST POP SWAP1 POP PUSH1 0x0 PUSH1 0x1 SWAP1 POP JUMPDEST PUSH1 0x5 SLOAD DUP2 GT PUSH2 0x372 JUMPI PUSH1 0x6 PUSH1 0x0 DUP3 DUP2 MSTORE PUSH1 0x20 ADD SWAP1 DUP2 MSTORE PUSH1 0x20 ADD PUSH1 0x0 KECCAK256 PUSH1 0x40 MLOAD DUP1 PUSH1 0x60 ADD PUSH1 0x40 MSTORE SWAP1 DUP2 PUSH1 0x0 DUP3 ADD SLOAD DUP2 MSTORE PUSH1 0x20 ADD PUSH1 0x1 DUP3 ADD DUP1 SLOAD PUSH2 0x2A9 SWAP1 PUSH2 0x1004 JUMP JUMPDEST DUP1 PUSH1 0x1F ADD PUSH1 0x20 DUP1 SWAP2 DIV MUL PUSH1 0x20 ADD PUSH1 0x40 MLOAD SWAP1 DUP2 ADD PUSH1 0x40 MSTORE DUP1 SWAP3 SWAP2 SWAP1 DUP2 DUP2 MSTORE PUSH1 0x20 ADD DUP3 DUP1 SLOAD PUSH2 0x2D5 SWAP1 PUSH2 0x1004 JUMP JUMPDEST DUP1 ISZERO PUSH2 0x322 JUMPI DUP1 PUSH1 0x1F LT PUSH2 0x2F7 JUMPI PUSH2 0x100 DUP1 DUP4 SLOAD DIV MUL DUP4 MSTORE SWAP2 PUSH1 0x20 ADD SWAP2 PUSH2 0x322 JUMP JUMPDEST DUP3 ADD SWAP2 SWAP1 PUSH1 0x0 MSTORE PUSH1 0x20 PUSH1 0x0 KECCAK256 SWAP1 JUMPDEST DUP2 SLOAD DUP2 MSTORE SWAP1 PUSH1 0x1 ADD SWAP1 PUSH1 0x20 ADD DUP1 DUP4 GT PUSH2 0x305 JUMPI DUP3 SWAP1 SUB PUSH1 0x1F AND DUP3 ADD SWAP2 JUMPDEST POP POP POP POP POP DUP2 MSTORE PUSH1 0x20 ADD PUSH1 0x2 DUP3 ADD SLOAD DUP2 MSTORE POP POP DUP3 PUSH1 0x1 DUP4 PUSH2 0x343 SWAP2 SWAP1 PUSH2 0x1064 JUMP JUMPDEST DUP2 MLOAD DUP2 LT PUSH2 0x354 JUMPI PUSH2 0x353 PUSH2 0x1098 JUMP JUMPDEST JUMPDEST PUSH1 0x20 MUL PUSH1 0x20 ADD ADD DUP2 SWAP1 MSTORE POP DUP1 DUP1 PUSH2 0x36A SWAP1 PUSH2 0x10C7 JUMP JUMPDEST SWAP2 POP POP PUSH2 0x268 JUMP JUMPDEST POP DUP1 SWAP2 POP POP SWAP1 JUMP JUMPDEST PUSH1 0x3 SLOAD DUP2 JUMP JUMPDEST PUSH1 0x5 SLOAD DUP2 JUMP JUMPDEST PUSH1 0x3 SLOAD TIMESTAMP LT ISZERO PUSH2 0x3CB JUMPI PUSH1 0x40 MLOAD PUSH32 0x8C379A000000000000000000000000000000000000000000000000000000000 DUP2 MSTORE PUSH1 0x4 ADD PUSH2 0x3C2 SWAP1 PUSH2 0x115B JUMP JUMPDEST PUSH1 0x40 MLOAD DUP1 SWAP2 SUB SWAP1 REVERT JUMPDEST PUSH1 0x4 SLOAD TIMESTAMP GT ISZERO PUSH2 0x410 JUMPI PUSH1 0x40 MLOAD PUSH32 0x8C379A000000000000000000000000000000000000000000000000000000000 DUP2 MSTORE PUSH1 0x4 ADD PUSH2 0x407 SWAP1 PUSH2 0x11C7 JUMP JUMPDEST PUSH1 0x40 MLOAD DUP1 SWAP2 SUB SWAP1 REVERT JUMPDEST PUSH1 0x7 PUSH1 0x0 CALLER PUSH20 0xFFFFFFFFFFFFFFFFFFFFFFFFFFFFFFFFFFFFFFFF AND PUSH20 0xFFFFFFFFFFFFFFFFFFFFFFFFFFFFFFFFFFFFFFFF AND DUP2 MSTORE PUSH1 0x20 ADD SWAP1 DUP2 MSTORE PUSH1 0x20 ADD PUSH1 0x0 KECCAK256 PUSH1 0x0 ADD PUSH1 0x0 SWAP1 SLOAD SWAP1 PUSH2 0x100 EXP SWAP1 DIV PUSH1 0xFF AND ISZERO PUSH2 0x4A0 JUMPI PUSH1 0x40 MLOAD PUSH32 0x8C379A000000000000000000000000000000000000000000000000000000000 DUP2 MSTORE PUSH1 0x4 ADD PUSH2 0x497 SWAP1 PUSH2 0x1233 JUMP JUMPDEST PUSH1 0x40 MLOAD DUP1 SWAP2 SUB SWAP1 REVERT JUMPDEST PUSH1 0x0 DUP2 GT DUP1 ISZERO PUSH2 0x4B2 JUMPI POP PUSH1 0x5 SLOAD DUP2 GT ISZERO JUMPDEST PUSH2 0x4F1 JUMPI PUSH1 0x40 MLOAD PUSH32 0x8C379A000000000000000000000000000000000000000000000000000000000 DUP2 MSTORE PUSH1 0x4 ADD PUSH2 0x4E8 SWAP1 PUSH2 0x12C5 JUMP JUMPDEST PUSH1 0x40 MLOAD DUP1 SWAP2 SUB SWAP1 REVERT JUMPDEST PUSH1 0x1 PUSH1 0x7 PUSH1 0x0 CALLER PUSH20 0xFFFFFFFFFFFFFFFFFFFFFFFFFFFFFFFFFFFFFFFF AND PUSH20 0xFFFFFFFFFFFFFFFFFFFFFFFFFFFFFFFFFFFFFFFF AND DUP2 MSTORE PUSH1 0x20 ADD SWAP1 DUP2 MSTORE PUSH1 0x20 ADD PUSH1 0x0 KECCAK256 PUSH1 0x0 ADD PUSH1 0x0 PUSH2 0x100 EXP DUP2 SLOAD DUP2 PUSH1 0xFF MUL NOT AND SWAP1 DUP4 ISZERO ISZERO MUL OR SWAP1 SSTORE POP DUP1 PUSH1 0x7 PUSH1 0x0 CALLER PUSH20 0xFFFFFFFFFFFFFFFFFFFFFFFFFFFFFFFFFFFFFFFF AND PUSH20 0xFFFFFFFFFFFFFFFFFFFFFFFFFFFFFFFFFFFFFFFF AND DUP2 MSTORE PUSH1 0x20 ADD SWAP1 DUP2 MSTORE PUSH1 0x20 ADD PUSH1 0x0 KECCAK256 PUSH1 0x1 ADD DUP2 SWAP1 SSTORE POP PUSH1 0x6 PUSH1 0x0 DUP3 DUP2 MSTORE PUSH1 0x20 ADD SWAP1 DUP2 MSTORE PUSH1 0x20 ADD PUSH1 0x0 KECCAK256 PUSH1 0x2 ADD PUSH1 0x0 DUP2 SLOAD DUP1 SWAP3 SWAP2 SWAP1 PUSH2 0x5BA SWAP1 PUSH2 0x10C7 JUMP JUMPDEST SWAP2 SWAP1 POP SSTORE POP DUP1 CALLER PUSH20 0xFFFFFFFFFFFFFFFFFFFFFFFFFFFFFFFFFFFFFFFF AND PUSH32 0xA36CC2BEBB74DB33E9F88110A07EF56E1B31B24B4C4F51B54B1664266E29F45B PUSH1 0x40 MLOAD PUSH1 0x40 MLOAD DUP1 SWAP2 SUB SWAP1 LOG3 POP JUMP JUMPDEST PUSH1 0x3 SLOAD TIMESTAMP LT ISZERO PUSH2 0x64B JUMPI PUSH1 0x40 MLOAD PUSH32 0x8C379A000000000000000000000000000000000000000000000000000000000 DUP2 MSTORE PUSH1 0x4 ADD PUSH2 0x642 SWAP1 PUSH2 0x115B JUMP JUMPDEST PUSH1 0x40 MLOAD DUP1 SWAP2 SUB SWAP1 REVERT JUMPDEST PUSH1 0x4 SLOAD TIMESTAMP GT ISZERO PUSH2 0x690 JUMPI PUSH1 0x40 MLOAD PUSH32 0x8C379A000000000000000000000000000000000000000000000000000000000 DUP2 MSTORE PUSH1 0x4 ADD PUSH2 0x687 SWAP1 PUSH2 0x11C7 JUMP JUMPDEST PUSH1 0x40 MLOAD DUP1 SWAP2 SUB SWAP1 REVERT JUMPDEST PUSH1 0x5 PUSH1 0x0 DUP2 SLOAD DUP1 SWAP3 SWAP2 SWAP1 PUSH2 0x6A3 SWAP1 PUSH2 0x10C7 JUMP JUMPDEST SWAP2 SWAP1 POP SSTORE POP PUSH1 0x40 MLOAD DUP1 PUSH1 0x60 ADD PUSH1 0x40 MSTORE DUP1 PUSH1 0x5 SLOAD DUP2 MSTORE PUSH1 0x20 ADD DUP3 DUP2 MSTORE PUSH1 0x20 ADD PUSH1 0x0 DUP2 MSTORE POP PUSH1 0x6 PUSH1 0x0 PUSH1 0x5 SLOAD DUP2 MSTORE PUSH1 0x20 ADD SWAP1 DUP2 MSTORE PUSH1 0x20 ADD PUSH1 0x0 KECCAK256 PUSH1 0x0 DUP3 ADD MLOAD DUP2 PUSH1 0x0 ADD SSTORE PUSH1 0x20 DUP3 ADD MLOAD DUP2 PUSH1 0x1 ADD SWAP1 DUP2 PUSH2 0x6FA SWAP2 SWAP1 PUSH2 0x1491 JUMP JUMPDEST POP PUSH1 0x40 DUP3 ADD MLOAD DUP2 PUSH1 0x2 ADD SSTORE SWAP1 POP POP POP JUMP JUMPDEST PUSH1 0x0 DUP1 SLOAD PUSH2 0x718 SWAP1 PUSH2 0x1004 JUMP JUMPDEST DUP1 PUSH1 0x1F ADD PUSH1 0x20 DUP1 SWAP2 DIV MUL PUSH1 0x20 ADD PUSH1 0x40 MLOAD SWAP1 DUP2 ADD PUSH1 0x40 MSTORE DUP1 SWAP3 SWAP2 SWAP1 DUP2 DUP2 MSTORE PUSH1 0x20 ADD DUP3 DUP1 SLOAD PUSH2 0x744 SWAP1 PUSH2 0x1004 JUMP JUMPDEST DUP1 ISZERO PUSH2 0x791 JUMPI DUP1 PUSH1 0x1F LT PUSH2 0x766 JUMPI PUSH2 0x100 DUP1 DUP4 SLOAD DIV MUL DUP4 MSTORE SWAP2 PUSH1 0x20 ADD SWAP2 PUSH2 0x791 JUMP JUMPDEST DUP3 ADD SWAP2 SWAP1 PUSH1 0x0 MSTORE PUSH1 0x20 PUSH1 0x0 KECCAK256 SWAP1 JUMPDEST DUP2 SLOAD DUP2 MSTORE SWAP1 PUSH1 0x1 ADD SWAP1 PUSH1 0x20 ADD DUP1 DUP4 GT PUSH2 0x774 JUMPI DUP3 SWAP1 SUB PUSH1 0x1F AND DUP3 ADD SWAP2 JUMPDEST POP POP POP POP POP DUP2 JUMP JUMPDEST PUSH1 0x1 DUP1 SLOAD PUSH2 0x7A6 SWAP1 PUSH2 0x1004 JUMP JUMPDEST DUP1 PUSH1 0x1F ADD PUSH1 0x20 DUP1 SWAP2 DIV MUL PUSH1 0x20 ADD PUSH1 0x40 MLOAD SWAP1 DUP2 ADD PUSH1 0x40 MSTORE DUP1 SWAP3 SWAP2 SWAP1 DUP2 DUP2 MSTORE PUSH1 0x20 ADD DUP3 DUP1 SLOAD PUSH2 0x7D2 SWAP1 PUSH2 0x1004 JUMP JUMPDEST DUP1 ISZERO PUSH2 0x81F JUMPI DUP1 PUSH1 0x1F LT PUSH2 0x7F4 JUMPI PUSH2 0x100 DUP1 DUP4 SLOAD DIV MUL DUP4 MSTORE SWAP2 PUSH1 0x20 ADD SWAP2 PUSH2 0x81F JUMP JUMPDEST DUP3 ADD SWAP2 SWAP1 PUSH1 0x0 MSTORE PUSH1 0x20 PUSH1 0x0 KECCAK256 SWAP1 JUMPDEST DUP2 SLOAD DUP2 MSTORE SWAP1 PUSH1 0x1 ADD SWAP1 PUSH1 0x20 ADD DUP1 DUP4 GT PUSH2 0x802 JUMPI DUP3 SWAP1 SUB PUSH1 0x1F AND DUP3 ADD SWAP2 JUMPDEST POP POP POP POP POP DUP2 JUMP JUMPDEST PUSH1 0x4 SLOAD DUP2 JUMP JUMPDEST PUSH1 0x0 DUP1 PUSH1 0x0 PUSH1 0x7 PUSH1 0x0 DUP6 PUSH20 0xFFFFFFFFFFFFFFFFFFFFFFFFFFFFFFFFFFFFFFFF AND PUSH20 0xFFFFFFFFFFFFFFFFFFFFFFFFFFFFFFFFFFFFFFFF AND DUP2 MSTORE PUSH1 0x20 ADD SWAP1 DUP2 MSTORE PUSH1 0x20 ADD PUSH1 0x0 KECCAK256 PUSH1 0x40 MLOAD DUP1 PUSH1 0x40 ADD PUSH1 0x40 MSTORE SWAP1 DUP2 PUSH1 0x0 DUP3 ADD PUSH1 0x0 SWAP1 SLOAD SWAP1 PUSH2 0x100 EXP SWAP1 DIV PUSH1 0xFF AND ISZERO ISZERO ISZERO ISZERO DUP2 MSTORE PUSH1 0x20 ADD PUSH1 0x1 DUP3 ADD SLOAD DUP2 MSTORE POP POP SWAP1 POP DUP1 PUSH1 0x0 ADD MLOAD DUP2 PUSH1 0x20 ADD MLOAD SWAP3 POP SWAP3 POP POP SWAP2 POP SWAP2 JUMP JUMPDEST PUSH1 0x2 PUSH1 0x0 SWAP1 SLOAD SWAP1 PUSH2 0x100 EXP SWAP1 DIV PUSH1 0xFF AND DUP2 JUMP JUMPDEST PUSH1 0x3 SLOAD TIMESTAMP LT ISZERO PUSH2 0x90F JUMPI PUSH1 0x40 MLOAD PUSH32 0x8C379A000000000000000000000000000000000000000000000000000000000 DUP2 MSTORE PUSH1 0x4 ADD PUSH2 0x906 SWAP1 PUSH2 0x115B JUMP JUMPDEST PUSH1 0x40 MLOAD DUP1 SWAP2 SUB SWAP1 REVERT JUMPDEST PUSH1 0x4 SLOAD TIMESTAMP GT ISZERO PUSH2 0x954 JUMPI PUSH1 0x40 MLOAD PUSH32 0x8C379A000000000000000000000000000000000000000000000000000000000 DUP2 MSTORE PUSH1 0x4 ADD PUSH2 0x94B SWAP1 PUSH2 0x11C7 JUMP JUMPDEST PUSH1 0x40 MLOAD DUP1 SWAP2 SUB SWAP1 REVERT JUMPDEST PUSH1 0x7 PUSH1 0x0 DUP3 PUSH20 0xFFFFFFFFFFFFFFFFFFFFFFFFFFFFFFFFFFFFFFFF AND PUSH20 0xFFFFFFFFFFFFFFFFFFFFFFFFFFFFFFFFFFFFFFFF AND DUP2 MSTORE PUSH1 0x20 ADD SWAP1 DUP2 MSTORE PUSH1 0x20 ADD PUSH1 0x0 KECCAK256 PUSH1 0x0 ADD PUSH1 0x0 SWAP1 SLOAD SWAP1 PUSH2 0x100 EXP SWAP1 DIV PUSH1 0xFF AND ISZERO PUSH2 0x9E4 JUMPI PUSH1 0x40 MLOAD PUSH32 0x8C379A000000000000000000000000000000000000000000000000000000000 DUP2 MSTORE PUSH1 0x4 ADD PUSH2 0x9DB SWAP1 PUSH2 0x15AF JUMP JUMPDEST PUSH1 0x40 MLOAD DUP1 SWAP2 SUB SWAP1 REVERT JUMPDEST PUSH1 0x40 MLOAD DUP1 PUSH1 0x40 ADD PUSH1 0x40 MSTORE DUP1 PUSH1 0x0 ISZERO ISZERO DUP2 MSTORE PUSH1 0x20 ADD PUSH1 0x0 DUP2 MSTORE POP PUSH1 0x7 PUSH1 0x0 DUP4 PUSH20 0xFFFFFFFFFFFFFFFFFFFFFFFFFFFFFFFFFFFFFFFF AND PUSH20 0xFFFFFFFFFFFFFFFFFFFFFFFFFFFFFFFFFFFFFFFF AND DUP2 MSTORE PUSH1 0x20 ADD SWAP1 DUP2 MSTORE PUSH1 0x20 ADD PUSH1 0x0 KECCAK256 PUSH1 0x0 DUP3 ADD MLOAD DUP2 PUSH1 0x0 ADD PUSH1 0x0 PUSH2 0x100 EXP DUP2 SLOAD DUP2 PUSH1 0xFF MUL NOT AND SWAP1 DUP4 ISZERO ISZERO MUL OR SWAP1 SSTORE POP PUSH1 0x20 DUP3 ADD MLOAD DUP2 PUSH1 0x1 ADD SSTORE SWAP1 POP POP POP JUMP JUMPDEST PUSH1 0x40 MLOAD DUP1 PUSH1 0x60 ADD PUSH1 0x40 MSTORE DUP1 PUSH1 0x0 DUP2 MSTORE PUSH1 0x20 ADD PUSH1 0x60 DUP2 MSTORE PUSH1 0x20 ADD PUSH1 0x0 DUP2 MSTORE POP SWAP1 JUMP JUMPDEST PUSH1 0x0 DUP2 MLOAD SWAP1 POP SWAP2 SWAP1 POP JUMP JUMPDEST PUSH1 0x0 DUP3 DUP3 MSTORE PUSH1 0x20 DUP3 ADD SWAP1 POP SWAP3 SWAP2 POP POP JUMP JUMPDEST PUSH1 0x0 DUP2 SWAP1 POP PUSH1 0x20 DUP3 ADD SWAP1 POP SWAP2 SWAP1 POP JUMP JUMPDEST PUSH1 0x0 DUP2 SWAP1 POP SWAP2 SWAP1 POP JUMP JUMPDEST PUSH2 0xACC DUP2 PUSH2 0xAB9 JUMP JUMPDEST DUP3 MSTORE POP POP JUMP JUMPDEST PUSH1 0x0 DUP2 MLOAD SWAP1 POP SWAP2 SWAP1 POP JUMP JUMPDEST PUSH1 0x0 DUP3 DUP3 MSTORE PUSH1 0x20 DUP3 ADD SWAP1 POP SWAP3 SWAP2 POP POP JUMP JUMPDEST PUSH1 0x0 JUMPDEST DUP4 DUP2 LT ISZERO PUSH2 0xB0C JUMPI DUP1 DUP3 ADD MLOAD DUP2 DUP5 ADD MSTORE PUSH1 0x20 DUP2 ADD SWAP1 POP PUSH2 0xAF1 JUMP JUMPDEST PUSH1 0x0 DUP5 DUP5 ADD MSTORE POP POP POP POP JUMP JUMPDEST PUSH1 0x0 PUSH1 0x1F NOT PUSH1 0x1F DUP4 ADD AND SWAP1 POP SWAP2 SWAP1 POP JUMP JUMPDEST PUSH1 0x0 PUSH2 0xB34 DUP3 PUSH2 0xAD2 JUMP JUMPDEST PUSH2 0xB3E DUP2 DUP6 PUSH2 0xADD JUMP JUMPDEST SWAP4 POP PUSH2 0xB4E DUP2 DUP6 PUSH1 0x20 DUP7 ADD PUSH2 0xAEE JUMP JUMPDEST PUSH2 0xB57 DUP2 PUSH2 0xB18 JUMP JUMPDEST DUP5 ADD SWAP2 POP POP SWAP3 SWAP2 POP POP JUMP JUMPDEST PUSH1 0x0 PUSH1 0x60 DUP4 ADD PUSH1 0x0 DUP4 ADD MLOAD PUSH2 0xB7A PUSH1 0x0 DUP7 ADD DUP3 PUSH2 0xAC3 JUMP JUMPDEST POP PUSH1 0x20 DUP4 ADD MLOAD DUP5 DUP3 SUB PUSH1 0x20 DUP7 ADD MSTORE PUSH2 0xB92 DUP3 DUP3 PUSH2 0xB29 JUMP JUMPDEST SWAP2 POP POP PUSH1 0x40 DUP4 ADD MLOAD PUSH2 0xBA7 PUSH1 0x40 DUP7 ADD DUP3 PUSH2 0xAC3 JUMP JUMPDEST POP DUP1 SWAP2 POP POP SWAP3 SWAP2 POP POP JUMP JUMPDEST PUSH1 0x0 PUSH2 0xBBE DUP4 DUP4 PUSH2 0xB62 JUMP JUMPDEST SWAP1 POP SWAP3 SWAP2 POP POP JUMP JUMPDEST PUSH1 0x0 PUSH1 0x20 DUP3 ADD SWAP1 POP SWAP2 SWAP1 POP JUMP JUMPDEST PUSH1 0x0 PUSH2 0xBDE DUP3 PUSH2 0xA8D JUMP JUMPDEST PUSH2 0xBE8 DUP2 DUP6 PUSH2 0xA98 JUMP JUMPDEST SWAP4 POP DUP4 PUSH1 0x20 DUP3 MUL DUP6 ADD PUSH2 0xBFA DUP6 PUSH2 0xAA9 JUMP JUMPDEST DUP1 PUSH1 0x0 JUMPDEST DUP6 DUP2 LT ISZERO PUSH2 0xC36 JUMPI DUP5 DUP5 SUB DUP10 MSTORE DUP2 MLOAD PUSH2 0xC17 DUP6 DUP3 PUSH2 0xBB2 JUMP JUMPDEST SWAP5 POP PUSH2 0xC22 DUP4 PUSH2 0xBC6 JUMP JUMPDEST SWAP3 POP PUSH1 0x20 DUP11 ADD SWAP10 POP POP PUSH1 0x1 DUP2 ADD SWAP1 POP PUSH2 0xBFE JUMP JUMPDEST POP DUP3 SWAP8 POP DUP8 SWAP6 POP POP POP POP POP POP SWAP3 SWAP2 POP POP JUMP JUMPDEST PUSH1 0x0 PUSH1 0x20 DUP3 ADD SWAP1 POP DUP2 DUP2 SUB PUSH1 0x0 DUP4 ADD MSTORE PUSH2 0xC62 DUP2 DUP5 PUSH2 0xBD3 JUMP JUMPDEST SWAP1 POP SWAP3 SWAP2 POP POP JUMP JUMPDEST PUSH2 0xC73 DUP2 PUSH2 0xAB9 JUMP JUMPDEST DUP3 MSTORE POP POP JUMP JUMPDEST PUSH1 0x0 PUSH1 0x20 DUP3 ADD SWAP1 POP PUSH2 0xC8E PUSH1 0x0 DUP4 ADD DUP5 PUSH2 0xC6A JUMP JUMPDEST SWAP3 SWAP2 POP POP JUMP JUMPDEST PUSH1 0x0 PUSH1 0x40 MLOAD SWAP1 POP SWAP1 JUMP JUMPDEST PUSH1 0x0 DUP1 REVERT JUMPDEST PUSH1 0x0 DUP1 REVERT JUMPDEST PUSH2 0xCB1 DUP2 PUSH2 0xAB9 JUMP JUMPDEST DUP2 EQ PUSH2 0xCBC JUMPI PUSH1 0x0 DUP1 REVERT JUMPDEST POP JUMP JUMPDEST PUSH1 0x0 DUP2 CALLDATALOAD SWAP1 POP PUSH2 0xCCE DUP2 PUSH2 0xCA8 JUMP JUMPDEST SWAP3 SWAP2 POP POP JUMP JUMPDEST PUSH1 0x0 PUSH1 0x20 DUP3 DUP5 SUB SLT ISZERO PUSH2 0xCEA JUMPI PUSH2 0xCE9 PUSH2 0xC9E JUMP JUMPDEST JUMPDEST PUSH1 0x0 PUSH2 0xCF8 DUP5 DUP3 DUP6 ADD PUSH2 0xCBF JUMP JUMPDEST SWAP2 POP POP SWAP3 SWAP2 POP POP JUMP JUMPDEST PUSH1 0x0 DUP1 REVERT JUMPDEST PUSH1 0x0 DUP1 REVERT JUMPDEST PUSH32 0x4E487B7100000000000000000000000000000000000000000000000000000000 PUSH1 0x0 MSTORE PUSH1 0x41 PUSH1 0x4 MSTORE PUSH1 0x24 PUSH1 0x0 REVERT JUMPDEST PUSH2 0xD43 DUP3 PUSH2 0xB18 JUMP JUMPDEST DUP2 ADD DUP2 DUP2 LT PUSH8 0xFFFFFFFFFFFFFFFF DUP3 GT OR ISZERO PUSH2 0xD62 JUMPI PUSH2 0xD61 PUSH2 0xD0B JUMP JUMPDEST JUMPDEST DUP1 PUSH1 0x40 MSTORE POP POP POP JUMP JUMPDEST PUSH1 0x0 PUSH2 0xD75 PUSH2 0xC94 JUMP JUMPDEST SWAP1 POP PUSH2 0xD81 DUP3 DUP3 PUSH2 0xD3A JUMP JUMPDEST SWAP2 SWAP1 POP JUMP JUMPDEST PUSH1 0x0 PUSH8 0xFFFFFFFFFFFFFFFF DUP3 GT ISZERO PUSH2 0xDA1 JUMPI PUSH2 0xDA0 PUSH2 0xD0B JUMP JUMPDEST JUMPDEST PUSH2 0xDAA DUP3 PUSH2 0xB18 JUMP JUMPDEST SWAP1 POP PUSH1 0x20 DUP2 ADD SWAP1 POP SWAP2 SWAP1 POP JUMP JUMPDEST DUP3 DUP2 DUP4 CALLDATACOPY PUSH1 0x0 DUP4 DUP4 ADD MSTORE POP POP POP JUMP JUMPDEST PUSH1 0x0 PUSH2 0xDD9 PUSH2 0xDD4 DUP5 PUSH2 0xD86 JUMP JUMPDEST PUSH2 0xD6B JUMP JUMPDEST SWAP1 POP DUP3 DUP2 MSTORE PUSH1 0x20 DUP2 ADD DUP5 DUP5 DUP5 ADD GT ISZERO PUSH2 0xDF5 JUMPI PUSH2 0xDF4 PUSH2 0xD06 JUMP JUMPDEST JUMPDEST PUSH2 0xE00 DUP5 DUP3 DUP6 PUSH2 0xDB7 JUMP JUMPDEST POP SWAP4 SWAP3 POP POP POP JUMP JUMPDEST PUSH1 0x0 DUP3 PUSH1 0x1F DUP4 ADD SLT PUSH2 0xE1D JUMPI PUSH2 0xE1C PUSH2 0xD01 JUMP JUMPDEST JUMPDEST DUP2 CALLDATALOAD PUSH2 0xE2D DUP5 DUP3 PUSH1 0x20 DUP7 ADD PUSH2 0xDC6 JUMP JUMPDEST SWAP2 POP POP SWAP3 SWAP2 POP POP JUMP JUMPDEST PUSH1 0x0 PUSH1 0x20 DUP3 DUP5 SUB SLT ISZERO PUSH2 0xE4C JUMPI PUSH2 0xE4B PUSH2 0xC9E JUMP JUMPDEST JUMPDEST PUSH1 0x0 DUP3 ADD CALLDATALOAD PUSH8 0xFFFFFFFFFFFFFFFF DUP2 GT ISZERO PUSH2 0xE6A JUMPI PUSH2 0xE69 PUSH2 0xCA3 JUMP JUMPDEST JUMPDEST PUSH2 0xE76 DUP5 DUP3 DUP6 ADD PUSH2 0xE08 JUMP JUMPDEST SWAP2 POP POP SWAP3 SWAP2 POP POP JUMP JUMPDEST PUSH1 0x0 DUP3 DUP3 MSTORE PUSH1 0x20 DUP3 ADD SWAP1 POP SWAP3 SWAP2 POP POP JUMP JUMPDEST PUSH1 0x0 PUSH2 0xE9B DUP3 PUSH2 0xAD2 JUMP JUMPDEST PUSH2 0xEA5 DUP2 DUP6 PUSH2 0xE7F JUMP JUMPDEST SWAP4 POP PUSH2 0xEB5 DUP2 DUP6 PUSH1 0x20 DUP7 ADD PUSH2 0xAEE JUMP JUMPDEST PUSH2 0xEBE DUP2 PUSH2 0xB18 JUMP JUMPDEST DUP5 ADD SWAP2 POP POP SWAP3 SWAP2 POP POP JUMP JUMPDEST PUSH1 0x0 PUSH1 0x20 DUP3 ADD SWAP1 POP DUP2 DUP2 SUB PUSH1 0x0 DUP4 ADD MSTORE PUSH2 0xEE3 DUP2 DUP5 PUSH2 0xE90 JUMP JUMPDEST SWAP1 POP SWAP3 SWAP2 POP POP JUMP JUMPDEST PUSH1 0x0 PUSH20 0xFFFFFFFFFFFFFFFFFFFFFFFFFFFFFFFFFFFFFFFF DUP3 AND SWAP1 POP SWAP2 SWAP1 POP JUMP JUMPDEST PUSH1 0x0 PUSH2 0xF16 DUP3 PUSH2 0xEEB JUMP JUMPDEST SWAP1 POP SWAP2 SWAP1 POP JUMP JUMPDEST PUSH2 0xF26 DUP2 PUSH2 0xF0B JUMP JUMPDEST DUP2 EQ PUSH2 0xF31 JUMPI PUSH1 0x0 DUP1 REVERT JUMPDEST POP JUMP JUMPDEST PUSH1 0x0 DUP2 CALLDATALOAD SWAP1 POP PUSH2 0xF43 DUP2 PUSH2 0xF1D JUMP JUMPDEST SWAP3 SWAP2 POP POP JUMP JUMPDEST PUSH1 0x0 PUSH1 0x20 DUP3 DUP5 SUB SLT ISZERO PUSH2 0xF5F JUMPI PUSH2 0xF5E PUSH2 0xC9E JUMP JUMPDEST JUMPDEST PUSH1 0x0 PUSH2 0xF6D DUP5 DUP3 DUP6 ADD PUSH2 0xF34 JUMP JUMPDEST SWAP2 POP POP SWAP3 SWAP2 POP POP JUMP JUMPDEST PUSH1 0x0 DUP2 ISZERO ISZERO SWAP1 POP SWAP2 SWAP1 POP JUMP JUMPDEST PUSH2 0xF8B DUP2 PUSH2 0xF76 JUMP JUMPDEST DUP3 MSTORE POP POP JUMP JUMPDEST PUSH1 0x0 PUSH1 0x40 DUP3 ADD SWAP1 POP PUSH2 0xFA6 PUSH1 0x0 DUP4 ADD DUP6 PUSH2 0xF82 JUMP JUMPDEST PUSH2 0xFB3 PUSH1 0x20 DUP4 ADD DUP5 PUSH2 0xC6A JUMP JUMPDEST SWAP4 SWAP3 POP POP POP JUMP JUMPDEST PUSH1 0x0 PUSH1 0x20 DUP3 ADD SWAP1 POP PUSH2 0xFCF PUSH1 0x0 DUP4 ADD DUP5 PUSH2 0xF82 JUMP JUMPDEST SWAP3 SWAP2 POP POP JUMP JUMPDEST PUSH32 0x4E487B7100000000000000000000000000000000000000000000000000000000 PUSH1 0x0 MSTORE PUSH1 0x22 PUSH1 0x4 MSTORE PUSH1 0x24 PUSH1 0x0 REVERT JUMPDEST PUSH1 0x0 PUSH1 0x2 DUP3 DIV SWAP1 POP PUSH1 0x1 DUP3 AND DUP1 PUSH2 0x101C JUMPI PUSH1 0x7F DUP3 AND SWAP2 POP JUMPDEST PUSH1 0x20 DUP3 LT DUP2 SUB PUSH2 0x102F JUMPI PUSH2 0x102E PUSH2 0xFD5 JUMP JUMPDEST JUMPDEST POP SWAP2 SWAP1 POP JUMP JUMPDEST PUSH32 0x4E487B7100000000000000000000000000000000000000000000000000000000 PUSH1 0x0 MSTORE PUSH1 0x11 PUSH1 0x4 MSTORE PUSH1 0x24 PUSH1 0x0 REVERT JUMPDEST PUSH1 0x0 PUSH2 0x106F DUP3 PUSH2 0xAB9 JUMP JUMPDEST SWAP2 POP PUSH2 0x107A DUP4 PUSH2 0xAB9 JUMP JUMPDEST SWAP3 POP DUP3 DUP3 SUB SWAP1 POP DUP2 DUP2 GT ISZERO PUSH2 0x1092 JUMPI PUSH2 0x1091 PUSH2 0x1035 JUMP JUMPDEST JUMPDEST SWAP3 SWAP2 POP POP JUMP JUMPDEST PUSH32 0x4E487B7100000000000000000000000000000000000000000000000000000000 PUSH1 0x0 MSTORE PUSH1 0x32 PUSH1 0x4 MSTORE PUSH1 0x24 PUSH1 0x0 REVERT JUMPDEST PUSH1 0x0 PUSH2 0x10D2 DUP3 PUSH2 0xAB9 JUMP JUMPDEST SWAP2 POP PUSH32 0xFFFFFFFFFFFFFFFFFFFFFFFFFFFFFFFFFFFFFFFFFFFFFFFFFFFFFFFFFFFFFFFF DUP3 SUB PUSH2 0x1104 JUMPI PUSH2 0x1103 PUSH2 0x1035 JUMP JUMPDEST JUMPDEST PUSH1 0x1 DUP3 ADD SWAP1 POP SWAP2 SWAP1 POP JUMP JUMPDEST PUSH32 0x456C656374696F6E20686173206E6F7420737461727465642079657400000000 PUSH1 0x0 DUP3 ADD MSTORE POP JUMP JUMPDEST PUSH1 0x0 PUSH2 0x1145 PUSH1 0x1C DUP4 PUSH2 0xE7F JUMP JUMPDEST SWAP2 POP PUSH2 0x1150 DUP3 PUSH2 0x110F JUMP JUMPDEST PUSH1 0x20 DUP3 ADD SWAP1 POP SWAP2 SWAP1 POP JUMP JUMPDEST PUSH1 0x0 PUSH1 0x20 DUP3 ADD SWAP1 POP DUP2 DUP2 SUB PUSH1 0x0 DUP4 ADD MSTORE PUSH2 0x1174 DUP2 PUSH2 0x1138 JUMP JUMPDEST SWAP1 POP SWAP2 SWAP1 POP JUMP JUMPDEST PUSH32 0x456C656374696F6E2068617320656E6465640000000000000000000000000000 PUSH1 0x0 DUP3 ADD MSTORE POP JUMP JUMPDEST PUSH1 0x0 PUSH2 0x11B1 PUSH1 0x12 DUP4 PUSH2 0xE7F JUMP JUMPDEST SWAP2 POP PUSH2 0x11BC DUP3 PUSH2 0x117B JUMP JUMPDEST PUSH1 0x20 DUP3 ADD SWAP1 POP SWAP2 SWAP1 POP JUMP JUMPDEST PUSH1 0x0 PUSH1 0x20 DUP3 ADD SWAP1 POP DUP2 DUP2 SUB PUSH1 0x0 DUP4 ADD MSTORE PUSH2 0x11E0 DUP2 PUSH2 0x11A4 JUMP JUMPDEST SWAP1 POP SWAP2 SWAP1 POP JUMP JUMPDEST PUSH32 0x596F75206861766520616C726561647920766F7465642E000000000000000000 PUSH1 0x0 DUP3 ADD MSTORE POP JUMP JUMPDEST PUSH1 0x0 PUSH2 0x121D PUSH1 0x17 DUP4 PUSH2 0xE7F JUMP JUMPDEST SWAP2 POP PUSH2 0x1228 DUP3 PUSH2 0x11E7 JUMP JUMPDEST PUSH1 0x20 DUP3 ADD SWAP1 POP SWAP2 SWAP1 POP JUMP JUMPDEST PUSH1 0x0 PUSH1 0x20 DUP3 ADD SWAP1 POP DUP2 DUP2 SUB PUSH1 0x0 DUP4 ADD MSTORE PUSH2 0x124C DUP2 PUSH2 0x1210 JUMP JUMPDEST SWAP1 POP SWAP2 SWAP1 POP JUMP JUMPDEST PUSH32 0x496E76616C69642063616E6469646174652E20506C6561736520656E74657220 PUSH1 0x0 DUP3 ADD MSTORE PUSH32 0x612076616C69642063616E646964617465204944000000000000000000000000 PUSH1 0x20 DUP3 ADD MSTORE POP JUMP JUMPDEST PUSH1 0x0 PUSH2 0x12AF PUSH1 0x34 DUP4 PUSH2 0xE7F JUMP JUMPDEST SWAP2 POP PUSH2 0x12BA DUP3 PUSH2 0x1253 JUMP JUMPDEST PUSH1 0x40 DUP3 ADD SWAP1 POP SWAP2 SWAP1 POP JUMP JUMPDEST PUSH1 0x0 PUSH1 0x20 DUP3 ADD SWAP1 POP DUP2 DUP2 SUB PUSH1 0x0 DUP4 ADD MSTORE PUSH2 0x12DE DUP2 PUSH2 0x12A2 JUMP JUMPDEST SWAP1 POP SWAP2 SWAP1 POP JUMP JUMPDEST PUSH1 0x0 DUP2 SWAP1 POP DUP2 PUSH1 0x0 MSTORE PUSH1 0x20 PUSH1 0x0 KECCAK256 SWAP1 POP SWAP2 SWAP1 POP JUMP JUMPDEST PUSH1 0x0 PUSH1 0x20 PUSH1 0x1F DUP4 ADD DIV SWAP1 POP SWAP2 SWAP1 POP JUMP JUMPDEST PUSH1 0x0 DUP3 DUP3 SHL SWAP1 POP SWAP3 SWAP2 POP POP JUMP JUMPDEST PUSH1 0x0 PUSH1 0x8 DUP4 MUL PUSH2 0x1347 PUSH32 0xFFFFFFFFFFFFFFFFFFFFFFFFFFFFFFFFFFFFFFFFFFFFFFFFFFFFFFFFFFFFFFFF DUP3 PUSH2 0x130A JUMP JUMPDEST PUSH2 0x1351 DUP7 DUP4 PUSH2 0x130A JUMP JUMPDEST SWAP6 POP DUP1 NOT DUP5 AND SWAP4 POP DUP1 DUP7 AND DUP5 OR SWAP3 POP POP POP SWAP4 SWAP3 POP POP POP JUMP JUMPDEST PUSH1 0x0 DUP2 SWAP1 POP SWAP2 SWAP1 POP JUMP JUMPDEST PUSH1 0x0 PUSH2 0x138E PUSH2 0x1389 PUSH2 0x1384 DUP5 PUSH2 0xAB9 JUMP JUMPDEST PUSH2 0x1369 JUMP JUMPDEST PUSH2 0xAB9 JUMP JUMPDEST SWAP1 POP SWAP2 SWAP1 POP JUMP JUMPDEST PUSH1 0x0 DUP2 SWAP1 POP SWAP2 SWAP1 POP JUMP JUMPDEST PUSH2 0x13A8 DUP4 PUSH2 0x1373 JUMP JUMPDEST PUSH2 0x13BC PUSH2 0x13B4 DUP3 PUSH2 0x1395 JUMP JUMPDEST DUP5 DUP5 SLOAD PUSH2 0x1317 JUMP JUMPDEST DUP3 SSTORE POP POP POP POP JUMP JUMPDEST PUSH1 0x0 SWAP1 JUMP JUMPDEST PUSH2 0x13D1 PUSH2 0x13C4 JUMP JUMPDEST PUSH2 0x13DC DUP2 DUP5 DUP5 PUSH2 0x139F JUMP JUMPDEST POP POP POP JUMP JUMPDEST JUMPDEST DUP2 DUP2 LT ISZERO PUSH2 0x1400 JUMPI PUSH2 0x13F5 PUSH1 0x0 DUP3 PUSH2 0x13C9 JUMP JUMPDEST PUSH1 0x1 DUP2 ADD SWAP1 POP PUSH2 0x13E2 JUMP JUMPDEST POP POP JUMP JUMPDEST PUSH1 0x1F DUP3 GT ISZERO PUSH2 0x1445 JUMPI PUSH2 0x1416 DUP2 PUSH2 0x12E5 JUMP JUMPDEST PUSH2 0x141F DUP5 PUSH2 0x12FA JUMP JUMPDEST DUP2 ADD PUSH1 0x20 DUP6 LT ISZERO PUSH2 0x142E JUMPI DUP2 SWAP1 POP JUMPDEST PUSH2 0x1442 PUSH2 0x143A DUP6 PUSH2 0x12FA JUMP JUMPDEST DUP4 ADD DUP3 PUSH2 0x13E1 JUMP JUMPDEST POP POP JUMPDEST POP POP POP JUMP JUMPDEST PUSH1 0x0 DUP3 DUP3 SHR SWAP1 POP SWAP3 SWAP2 POP POP JUMP JUMPDEST PUSH1 0x0 PUSH2 0x1468 PUSH1 0x0 NOT DUP5 PUSH1 0x8 MUL PUSH2 0x144A JUMP JUMPDEST NOT DUP1 DUP4 AND SWAP2 POP POP SWAP3 SWAP2 POP POP JUMP JUMPDEST PUSH1 0x0 PUSH2 0x1481 DUP4 DUP4 PUSH2 0x1457 JUMP JUMPDEST SWAP2 POP DUP3 PUSH1 0x2 MUL DUP3 OR SWAP1 POP SWAP3 SWAP2 POP POP JUMP JUMPDEST PUSH2 0x149A DUP3 PUSH2 0xAD2 JUMP JUMPDEST PUSH8 0xFFFFFFFFFFFFFFFF DUP2 GT ISZERO PUSH2 0x14B3 JUMPI PUSH2 0x14B2 PUSH2 0xD0B JUMP JUMPDEST JUMPDEST PUSH2 0x14BD DUP3 SLOAD PUSH2 0x1004 JUMP JUMPDEST PUSH2 0x14C8 DUP3 DUP3 DUP6 PUSH2 0x1404 JUMP JUMPDEST PUSH1 0x0 PUSH1 0x20 SWAP1 POP PUSH1 0x1F DUP4 GT PUSH1 0x1 DUP2 EQ PUSH2 0x14FB JUMPI PUSH1 0x0 DUP5 ISZERO PUSH2 0x14E9 JUMPI DUP3 DUP8 ADD MLOAD SWAP1 POP JUMPDEST PUSH2 0x14F3 DUP6 DUP3 PUSH2 0x1475 JUMP JUMPDEST DUP7 SSTORE POP PUSH2 0x155B JUMP JUMPDEST PUSH1 0x1F NOT DUP5 AND PUSH2 0x1509 DUP7 PUSH2 0x12E5 JUMP JUMPDEST PUSH1 0x0 JUMPDEST DUP3 DUP2 LT ISZERO PUSH2 0x1531 JUMPI DUP5 DUP10 ADD MLOAD DUP3 SSTORE PUSH1 0x1 DUP3 ADD SWAP2 POP PUSH1 0x20 DUP6 ADD SWAP5 POP PUSH1 0x20 DUP2 ADD SWAP1 POP PUSH2 0x150C JUMP JUMPDEST DUP7 DUP4 LT ISZERO PUSH2 0x154E JUMPI DUP5 DUP10 ADD MLOAD PUSH2 0x154A PUSH1 0x1F DUP10 AND DUP3 PUSH2 0x1457 JUMP JUMPDEST DUP4 SSTORE POP JUMPDEST PUSH1 0x1 PUSH1 0x2 DUP9 MUL ADD DUP9 SSTORE POP POP POP JUMPDEST POP POP POP POP POP POP JUMP JUMPDEST PUSH32 0x566F74657220697320616C726561647920726567697374657265640000000000 PUSH1 0x0 DUP3 ADD MSTORE POP JUMP JUMPDEST PUSH1 0x0 PUSH2 0x1599 PUSH1 0x1B DUP4 PUSH2 0xE7F JUMP JUMPDEST SWAP2 POP PUSH2 0x15A4 DUP3 PUSH2 0x1563 JUMP JUMPDEST PUSH1 0x20 DUP3 ADD SWAP1 POP SWAP2 SWAP1 POP JUMP JUMPDEST PUSH1 0x0 PUSH1 0x20 DUP3 ADD SWAP1 POP DUP2 DUP2 SUB PUSH1 0x0 DUP4 ADD MSTORE PUSH2 0x15C8 DUP2 PUSH2 0x158C JUMP JUMPDEST SWAP1 POP SWAP2 SWAP1 POP JUMP INVALID LOG2 PUSH5 0x6970667358 0x22 SLT KECCAK256 0xDB 0xDF 0xA7 CODECOPY JUMPI NUMBER ORIGIN SELFDESTRUCT ISZERO 0xC8 CALLDATACOPY PC SWAP7 0xE3 0xCF PUSH7 0x4C2DC89D869141 ADDRESS GASPRICE MSIZE 0xAC 0xBA PUSH12 0x6D059764736F6C6343000818 STOP CALLER LOG2 PUSH5 0x6970667358 0x22 SLT KECCAK256 0xEF DUP6 STOP 0xF9 GASLIMIT OR GT DUP7 MSIZE PUSH23 0x17862978A4A397AFBB49CA29AF57ACAD55637A1A3B0864 PUSH20 0x6F6C634300081800330000000000000000000000 "
        },
        "methodIdentifiers": {
          "createElection(string,string,bool,uint256,uint256)": "721f1c6d",
          "deleteElection(uint256)": "740c47d4",
          "getElections()": "9f3a7f52",
          "getOwner()": "893d20e8",
          "getTotalElections()": "a9392e0c"
        }
      }
    }
  }
}